{
  "contractName": "Identity",
  "abi": [
    {
      "constant": true,
      "inputs": [],
      "name": "subject",
      "outputs": [
        {
          "name": "",
          "type": "string"
        }
      ],
      "payable": false,
      "stateMutability": "view",
      "type": "function"
    },
    {
      "constant": true,
      "inputs": [],
      "name": "audience",
      "outputs": [
        {
          "name": "",
          "type": "string"
        }
      ],
      "payable": false,
      "stateMutability": "view",
      "type": "function"
    },
    {
      "constant": true,
      "inputs": [],
      "name": "keys",
      "outputs": [
        {
          "name": "",
          "type": "address"
        }
      ],
      "payable": false,
      "stateMutability": "view",
      "type": "function"
    },
    {
      "constant": true,
      "inputs": [
        {
          "name": "",
          "type": "address"
        }
      ],
      "name": "accounts",
      "outputs": [
        {
          "name": "",
          "type": "bool"
        }
      ],
      "payable": false,
      "stateMutability": "view",
      "type": "function"
    },
    {
      "constant": true,
      "inputs": [],
      "name": "erc20",
      "outputs": [
        {
          "name": "",
          "type": "address"
        }
      ],
      "payable": false,
      "stateMutability": "view",
      "type": "function"
    },
    {
      "inputs": [
        {
          "name": "sub",
          "type": "string"
        },
        {
          "name": "aud",
          "type": "string"
        },
        {
          "name": "jwks",
          "type": "address"
        },
        {
          "name": "_erc20",
          "type": "address"
        }
      ],
      "payable": true,
      "stateMutability": "payable",
      "type": "constructor"
    },
    {
      "anonymous": false,
      "inputs": [
        {
          "indexed": false,
          "name": "log",
          "type": "string"
        },
        {
          "indexed": false,
          "name": "add",
          "type": "address"
        },
        {
          "indexed": false,
          "name": "amount",
          "type": "uint256"
        }
      ],
      "name": "Log",
      "type": "event"
    },
    {
      "constant": false,
      "inputs": [
        {
          "name": "headerJson",
          "type": "string"
        },
        {
          "name": "payloadJson",
          "type": "string"
        },
        {
          "name": "signature",
          "type": "bytes"
        },
        {
          "name": "tokens",
          "type": "uint256"
        }
      ],
      "name": "recover",
      "outputs": [],
      "payable": false,
      "stateMutability": "nonpayable",
      "type": "function"
    },
    {
      "constant": true,
      "inputs": [],
      "name": "getAccounts",
      "outputs": [
        {
          "name": "",
          "type": "address[]"
        }
      ],
      "payable": false,
      "stateMutability": "view",
      "type": "function"
    }
  ],
  "bytecode": "0x608060405260405162004ead38038062004ead833981018060405260808110156200002957600080fd5b8101908080516401000000008111156200004257600080fd5b828101905060208101848111156200005957600080fd5b81518560018202830111640100000000821117156200007757600080fd5b505092919060200180516401000000008111156200009457600080fd5b82810190506020810184811115620000ab57600080fd5b8151856001820283011164010000000082111715620000c957600080fd5b5050929190602001805190602001909291908051906020019092919050505060016000803373ffffffffffffffffffffffffffffffffffffffff1673ffffffffffffffffffffffffffffffffffffffff16815260200190815260200160002060006101000a81548160ff02191690831515021790555060013390806001815401808255809150509060018203906000526020600020016000909192909190916101000a81548173ffffffffffffffffffffffffffffffffffffffff021916908373ffffffffffffffffffffffffffffffffffffffff160217905550508260029080519060200190620001bd92919062000263565b508360039080519060200190620001d692919062000263565b5081600460006101000a81548173ffffffffffffffffffffffffffffffffffffffff021916908373ffffffffffffffffffffffffffffffffffffffff16021790555080600560006101000a81548173ffffffffffffffffffffffffffffffffffffffff021916908373ffffffffffffffffffffffffffffffffffffffff1602179055505050505062000312565b828054600181600116156101000203166002900490600052602060002090601f016020900481019282601f10620002a657805160ff1916838001178555620002d7565b82800160010185558215620002d7579182015b82811115620002d6578251825591602001919060010190620002b9565b5b509050620002e69190620002ea565b5090565b6200030f91905b808211156200030b576000816000905550600101620002f1565b5090565b90565b614b8b80620003226000396000f3fe608060405234801561001057600080fd5b506004361061009a576000357c0100000000000000000000000000000000000000000000000000000000900480634b3383b0116100785780634b3383b0146101ef5780635e5c06e2146103e2578063785e9e861461043e5780638a48ac03146104885761009a565b80630a59a98c1461009f5780631ee1f80014610122578063307540f6146101a5575b600080fd5b6100a76104e7565b6040518080602001828103825283818151815260200191508051906020019080838360005b838110156100e75780820151818401526020810190506100cc565b50505050905090810190601f1680156101145780820380516001836020036101000a031916815260200191505b509250505060405180910390f35b61012a610585565b6040518080602001828103825283818151815260200191508051906020019080838360005b8381101561016a57808201518184015260208101905061014f565b50505050905090810190601f1680156101975780820380516001836020036101000a031916815260200191505b509250505060405180910390f35b6101ad610623565b604051808273ffffffffffffffffffffffffffffffffffffffff1673ffffffffffffffffffffffffffffffffffffffff16815260200191505060405180910390f35b6103e06004803603608081101561020557600080fd5b810190808035906020019064010000000081111561022257600080fd5b82018360208201111561023457600080fd5b8035906020019184600183028401116401000000008311171561025657600080fd5b91908080601f016020809104026020016040519081016040528093929190818152602001838380828437600081840152601f19601f820116905080830192505050505050509192919290803590602001906401000000008111156102b957600080fd5b8201836020820111156102cb57600080fd5b803590602001918460018302840111640100000000831117156102ed57600080fd5b91908080601f016020809104026020016040519081016040528093929190818152602001838380828437600081840152601f19601f8201169050808301925050505050505091929192908035906020019064010000000081111561035057600080fd5b82018360208201111561036257600080fd5b8035906020019184600183028401116401000000008311171561038457600080fd5b91908080601f016020809104026020016040519081016040528093929190818152602001838380828437600081840152601f19601f82011690508083019250505050505050919291929080359060200190929190505050610649565b005b610424600480360360208110156103f857600080fd5b81019080803573ffffffffffffffffffffffffffffffffffffffff169060200190929190505050610c3d565b604051808215151515815260200191505060405180910390f35b610446610c5d565b604051808273ffffffffffffffffffffffffffffffffffffffff1673ffffffffffffffffffffffffffffffffffffffff16815260200191505060405180910390f35b610490610c83565b6040518080602001828103825283818151815260200191508051906020019060200280838360005b838110156104d35780820151818401526020810190506104b8565b505050509050019250505060405180910390f35b60038054600181600116156101000203166002900480601f01602080910402602001604051908101604052809291908181526020018280546001816001161561010002031660029004801561057d5780601f106105525761010080835404028352916020019161057d565b820191906000526020600020905b81548152906001019060200180831161056057829003601f168201915b505050505081565b60028054600181600116156101000203166002900480601f01602080910402602001604051908101604052809291908181526020018280546001816001161561010002031660029004801561061b5780601f106105f05761010080835404028352916020019161061b565b820191906000526020600020905b8154815290600101906020018083116105fe57829003601f168201915b505050505081565b600460009054906101000a900473ffffffffffffffffffffffffffffffffffffffff1681565b606061065485610d11565b9050606061066185610d11565b9050606060026040519080825280602002602001820160405280156106a057816020015b61068d6148eb565b8152602001906001900390816106855790505b5090506106ac83611257565b8160008151811015156106bb57fe5b906020019060200201819052506106d182611257565b8160018151811015156106e057fe5b90602001906020020181905250606061073f826107316040805190810160405280600181526020017f2e00000000000000000000000000000000000000000000000000000000000000815250611257565b61128590919063ffffffff16565b9050606061074c896113e9565b9050606061075982611786565b90506060610766836117ac565b905060006107818a8484886119b2909392919063ffffffff16565b1415156107f6576040517f08c379a000000000000000000000000000000000000000000000000000000000815260040180806020018281038252601a8152602001807f525341207369676e617475726520636865636b206661696c656400000000000081525060200191505060405180910390fd5b60608060606108048d611a69565b92509250925060006108b960028054600181600116156101000203166002900480601f0160208091040260200160405190810160405280929190818152602001828054600181600116156101000203166002900480156108a55780601f1061087a576101008083540402835291602001916108a5565b820191906000526020600020905b81548152906001019060200180831161088857829003601f168201915b5050505050856120ab90919063ffffffff16565b14806108c3575060015b1515610937576040517f08c379a00000000000000000000000000000000000000000000000000000000081526004018080602001828103825260178152602001807f41756469656e636520646f6573206e6f74206d6174636800000000000000000081525060200191505060405180910390fd5b60006109e660038054600181600116156101000203166002900480601f0160208091040260200160405190810160405280929190818152602001828054600181600116156101000203166002900480156109d25780601f106109a7576101008083540402835291602001916109d2565b820191906000526020600020905b8154815290600101906020018083116109b557829003601f168201915b5050505050836120ab90919063ffffffff16565b141515610a5b576040517f08c379a00000000000000000000000000000000000000000000000000000000081526004018080602001828103825260168152602001807f5375626a65637420646f6573206e6f74206d617463680000000000000000000081525060200191505060405180910390fd5b6060610ac8338d604051602001808373ffffffffffffffffffffffffffffffffffffffff1673ffffffffffffffffffffffffffffffffffffffff166c0100000000000000000000000002815260140182815260200192505050604051602081830303815290604052610d11565b90506000610adf84836120ab90919063ffffffff16565b141515610b54576040517f08c379a000000000000000000000000000000000000000000000000000000000815260040180806020018281038252601b8152602001807f53656e64657220646f6573206e6f74206d61746368206e6f6e6365000000000081525060200191505060405180910390fd5b7f31f37e75fc861191c989b3f8011596a4c0dd2bd2b255a7072a7d94fdb895a72481338e60405180806020018473ffffffffffffffffffffffffffffffffffffffff1673ffffffffffffffffffffffffffffffffffffffff168152602001838152602001828103825285818151815260200191508051906020019080838360005b83811015610bf0578082015181840152602081019050610bd5565b50505050905090810190601f168015610c1d5780820380516001836020036101000a031916815260200191505b5094505050505060405180910390a1505050505050505050505050505050565b60006020528060005260406000206000915054906101000a900460ff1681565b600560009054906101000a900473ffffffffffffffffffffffffffffffffffffffff1681565b60606001805480602002602001604051908101604052809291908181526020018280548015610d0757602002820191906000526020600020905b8160009054906101000a900473ffffffffffffffffffffffffffffffffffffffff1673ffffffffffffffffffffffffffffffffffffffff1681526020019060010190808311610cbd575b5050505050905090565b606080829050600060038251811515610d2657fe5b0690506000600382600303811515610d3a57fe5b06600460036002865101811515610d4d57fe5b04020390506060816040519080825280601f01601f191660200182016040528015610d875781602001600182028038833980820191505090505b509050600080905060008090505b85516003830111151561103757610f2d8683815181101515610db357fe5b9060200101517f010000000000000000000000000000000000000000000000000000000000000090047f0100000000000000000000000000000000000000000000000000000000000000027f0100000000000000000000000000000000000000000000000000000000000000900460ff168760018501815181101515610e3557fe5b9060200101517f010000000000000000000000000000000000000000000000000000000000000090047f0100000000000000000000000000000000000000000000000000000000000000027f0100000000000000000000000000000000000000000000000000000000000000900460ff168860028601815181101515610eb757fe5b9060200101517f010000000000000000000000000000000000000000000000000000000000000090047f0100000000000000000000000000000000000000000000000000000000000000027f0100000000000000000000000000000000000000000000000000000000000000900460ff16612371565b8685815181101515610f3b57fe5b90602001018760018701815181101515610f5157fe5b90602001018860028801815181101515610f6757fe5b90602001018960038901815181101515610f7d57fe5b9060200101847effffffffffffffffffffffffffffffffffffffffffffffffffffffffffffff191660001a9053847effffffffffffffffffffffffffffffffffffffffffffffffffffffffffffff191660001a9053847effffffffffffffffffffffffffffffffffffffffffffffffffffffffffffff191660001a9053847effffffffffffffffffffffffffffffffffffffffffffffffffffffffffffff191660001a905350505050600481019050600382019150610d95565b600085141515611249576000868688510381518110151561105457fe5b9060200101517f010000000000000000000000000000000000000000000000000000000000000090047f0100000000000000000000000000000000000000000000000000000000000000027f01000000000000000000000000000000000000000000000000000000000000009004905060008090506002871415611155578760018951038151811015156110e457fe5b9060200101517f010000000000000000000000000000000000000000000000000000000000000090047f0100000000000000000000000000000000000000000000000000000000000000027f0100000000000000000000000000000000000000000000000000000000000000900490505b60008060008061116d8660ff168660ff166000612371565b935093509350935083898881518110151561118457fe5b9060200101907effffffffffffffffffffffffffffffffffffffffffffffffffffffffffffff1916908160001a9053508289600189018151811015156111c657fe5b9060200101907effffffffffffffffffffffffffffffffffffffffffffffffffffffffffffff1916908160001a90535060028b14156112425781896002890181518110151561121157fe5b9060200101907effffffffffffffffffffffffffffffffffffffffffffffffffffffffffffff1916908160001a9053505b5050505050505b829650505050505050919050565b61125f614905565b600060208301905060408051908101604052808451815260200182815250915050919050565b60606000825114156112a957602060405190810160405280600081525090506113e3565b60006001835103846000015102905060008090505b83518110156112f45783818151811015156112d557fe5b90602001906020020151600001518201915080806001019150506112be565b506060816040519080825280601f01601f19166020018201604052801561132a5781602001600182028038833980820191505090505b509050600060208201905060008090505b85518110156113db5761138582878381518110151561135657fe5b9060200190602002015160200151888481518110151561137257fe5b90602001906020020151600001516125b0565b858181518110151561139357fe5b90602001906020020151600001518201915060018651038110156113ce576113c482886020015189600001516125b0565b8660000151820191505b808060010191505061133b565b508193505050505b92915050565b60606000606060006114056014866125fb90919063ffffffff16565b925092509250600083141515611483576040517f08c379a00000000000000000000000000000000000000000000000000000000081526004018080602001828103825260118152602001807f4a534f4e207061727365206661696c656400000000000000000000000000000081525060200191505060405180910390fd5b6001600481111561149057fe5b82600081518110151561149f57fe5b906020019060200201516000015160048111156114b857fe5b14151561152d576040517f08c379a000000000000000000000000000000000000000000000000000000000815260040180806020018281038252601c8152602001807f4578706563746564204a575420746f20626520616e206f626a6563740000000081525060200191505060405180910390fd5b6000600190505b8181101561177c576003600481111561154957fe5b838281518110151561155757fe5b9060200190602002015160000151600481111561157057fe5b1415156115c8576040517f08c379a0000000000000000000000000000000000000000000000000000000008152600401808060200182810382526028815260200180614a386028913960400191505060405180910390fd5b606061161584838151811015156115db57fe5b906020019060200201516020015185848151811015156115f757fe5b9060200190602002015160600151896134089092919063ffffffff16565b905060006116616040805190810160405280600381526020017f6b69640000000000000000000000000000000000000000000000000000000000815250836120ab90919063ffffffff16565b1415611770576003600481111561167457fe5b846001840181518110151561168557fe5b9060200190602002015160000151600481111561169e57fe5b141515611713576040517f08c379a000000000000000000000000000000000000000000000000000000000815260040180806020018281038252601b8152602001807f4578706563746564206b696420746f206265206120737472696e67000000000081525060200191505060405180910390fd5b611764846001840181518110151561172757fe5b9060200190602002015160200151856001850181518110151561174657fe5b9060200190602002015160600151896134089092919063ffffffff16565b95505050505050611781565b60028201915050611534565b505050505b919050565b6060610120604051908101604052806101008152602001614a6061010091399050919050565b6060600460009054906101000a900473ffffffffffffffffffffffffffffffffffffffff1673ffffffffffffffffffffffffffffffffffffffff1663497fc8f4836040518263ffffffff167c01000000000000000000000000000000000000000000000000000000000281526004018080602001828103825283818151815260200191508051906020019080838360005b8381101561185857808201518184015260208101905061183d565b50505050905090810190601f1680156118855780820380516001836020036101000a031916815260200191505b509250505060006040518083038186803b1580156118a257600080fd5b505afa1580156118b6573d6000803e3d6000fd5b505050506040513d6000823e3d601f19601f8201168201806040525060208110156118e057600080fd5b8101908080516401000000008111156118f857600080fd5b8281019050602081018481111561190e57600080fd5b815185600182028301116401000000008211171561192b57600080fd5b505092919050505090506000815114156119ad576040517f08c379a000000000000000000000000000000000000000000000000000000000815260040180806020018281038252600d8152602001807f4b6579206e6f7420666f756e640000000000000000000000000000000000000081525060200191505060405180910390fd5b919050565b6000611a5f6002866040518082805190602001908083835b6020831015156119ef57805182526020820191506020810190506020830392506119ca565b6001836020036101000a038019825116818451168082178552505050505050905001915050602060405180830381855afa158015611a31573d6000803e3d6000fd5b5050506040513d6020811015611a4657600080fd5b8101908080519060200190929190505050858585613509565b9050949350505050565b6060806060600060606000611a886028886125fb90919063ffffffff16565b925092509250600083141515611b06576040517f08c379a00000000000000000000000000000000000000000000000000000000081526004018080602001828103825260118152602001807f4a534f4e207061727365206661696c656400000000000000000000000000000081525060200191505060405180910390fd5b60016004811115611b1357fe5b826000815181101515611b2257fe5b90602001906020020151600001516004811115611b3b57fe5b141515611bb0576040517f08c379a000000000000000000000000000000000000000000000000000000000815260040180806020018281038252601c8152602001807f4578706563746564204a575420746f20626520616e206f626a6563740000000081525060200191505060405180910390fd5b6000600190505b818110156120a05760036004811115611bcc57fe5b8382815181101515611bda57fe5b90602001906020020151600001516004811115611bf357fe5b141515611c4b576040517f08c379a0000000000000000000000000000000000000000000000000000000008152600401808060200182810382526028815260200180614a386028913960400191505060405180910390fd5b6060611c988483815181101515611c5e57fe5b90602001906020020151602001518584815181101515611c7a57fe5b90602001906020020151606001518b6134089092919063ffffffff16565b90506000611ce46040805190810160405280600381526020017f7375620000000000000000000000000000000000000000000000000000000000815250836120ab90919063ffffffff16565b1415611dee5760036004811115611cf757fe5b8460018401815181101515611d0857fe5b90602001906020020151600001516004811115611d2157fe5b141515611d96576040517f08c379a000000000000000000000000000000000000000000000000000000000815260040180806020018281038252601b8152602001807f45787065637465642073756220746f206265206120737472696e67000000000081525060200191505060405180910390fd5b611de78460018401815181101515611daa57fe5b90602001906020020151602001518560018501815181101515611dc957fe5b90602001906020020151606001518b6134089092919063ffffffff16565b9550612094565b6000611e386040805190810160405280600381526020017f6175640000000000000000000000000000000000000000000000000000000000815250836120ab90919063ffffffff16565b1415611f425760036004811115611e4b57fe5b8460018401815181101515611e5c57fe5b90602001906020020151600001516004811115611e7557fe5b141515611eea576040517f08c379a000000000000000000000000000000000000000000000000000000000815260040180806020018281038252601b8152602001807f45787065637465642061756420746f206265206120737472696e67000000000081525060200191505060405180910390fd5b611f3b8460018401815181101515611efe57fe5b90602001906020020151602001518560018501815181101515611f1d57fe5b90602001906020020151606001518b6134089092919063ffffffff16565b9750612093565b6000611f8c6040805190810160405280600581526020017f6e6f6e6365000000000000000000000000000000000000000000000000000000815250836120ab90919063ffffffff16565b14156120925760036004811115611f9f57fe5b8460018401815181101515611fb057fe5b90602001906020020151600001516004811115611fc957fe5b14151561203e576040517f08c379a000000000000000000000000000000000000000000000000000000000815260040180806020018281038252601d8152602001807f4578706563746564206e6f6e636520746f206265206120737472696e6700000081525060200191505060405180910390fd5b61208f846001840181518110151561205257fe5b9060200190602002015160200151856001850181518110151561207157fe5b90602001906020020151606001518b6134089092919063ffffffff16565b96505b5b5b60028201915050611bb7565b505050509193909250565b60006060839050606083905060008251905080825110156120cb57815190505b60008090505b818110156123175782818151811015156120e757fe5b9060200101517f010000000000000000000000000000000000000000000000000000000000000090047f0100000000000000000000000000000000000000000000000000000000000000027effffffffffffffffffffffffffffffffffffffffffffffffffffffffffffff1916848281518110151561216257fe5b9060200101517f010000000000000000000000000000000000000000000000000000000000000090047f0100000000000000000000000000000000000000000000000000000000000000027effffffffffffffffffffffffffffffffffffffffffffffffffffffffffffff19161015612201577fffffffffffffffffffffffffffffffffffffffffffffffffffffffffffffffff94505050505061236b565b828181518110151561220f57fe5b9060200101517f010000000000000000000000000000000000000000000000000000000000000090047f0100000000000000000000000000000000000000000000000000000000000000027effffffffffffffffffffffffffffffffffffffffffffffffffffffffffffff1916848281518110151561228a57fe5b9060200101517f010000000000000000000000000000000000000000000000000000000000000090047f0100000000000000000000000000000000000000000000000000000000000000027effffffffffffffffffffffffffffffffffffffffffffffffffffffffffffff1916111561230a57600194505050505061236b565b80806001019150506120d1565b5081518351101561234d577fffffffffffffffffffffffffffffffffffffffffffffffffffffffffffffffff935050505061236b565b815183511115612363576001935050505061236b565b600093505050505b92915050565b6000806000806000856008889060020a0260108a9060020a02171790506000603f601283908060020a82049150501690506000603f600c84908060020a82049150501690506000603f600685908060020a82049150501690506000603f85169050606060405190810160405280604081526020016149f860409139848151811015156123f957fe5b9060200101517f010000000000000000000000000000000000000000000000000000000000000090047f0100000000000000000000000000000000000000000000000000000000000000029850606060405190810160405280604081526020016149f8604091398381518110151561246d57fe5b9060200101517f010000000000000000000000000000000000000000000000000000000000000090047f0100000000000000000000000000000000000000000000000000000000000000029750606060405190810160405280604081526020016149f860409139828151811015156124e157fe5b9060200101517f010000000000000000000000000000000000000000000000000000000000000090047f0100000000000000000000000000000000000000000000000000000000000000029650606060405190810160405280604081526020016149f8604091398181518110151561255557fe5b9060200101517f010000000000000000000000000000000000000000000000000000000000000090047f0100000000000000000000000000000000000000000000000000000000000000029550505050505093509350935093565b5b6020811015156125d657815183526020830192506020820191506020810390506125b1565b60006001826020036101000a0390508019835116818551168181178652505050505050565b6000606060006060859050600061261061491f565b61261987613b27565b8096508192505050600080826020015190506000612635614941565b5b8651856000015110156133eb57600087866000015181518110151561265757fe5b9060200101517f010000000000000000000000000000000000000000000000000000000000000090047f0100000000000000000000000000000000000000000000000000000000000000029050607b7f010000000000000000000000000000000000000000000000000000000000000002817effffffffffffffffffffffffffffffffffffffffffffffffffffffffffffff1916148061273b5750605b7f010000000000000000000000000000000000000000000000000000000000000002817effffffffffffffffffffffffffffffffffffffffffffffffffffffffffffff1916145b15612888578380600101945050612752868b613bc5565b809350819850505086151561277c5760038a60008090509a509a509a505050505050505050613401565b7fffffffffffffffffffffffffffffffffffffffffffffffffffffffffffffffff86604001511415156127db578986604001518151811015156127bb57fe5b9060200190602002015160a001805180919060010160ff1660ff16815250505b607b7f010000000000000000000000000000000000000000000000000000000000000002817effffffffffffffffffffffffffffffffffffffffffffffffffffffffffffff19161461282e576002612831565b60015b8260000190600481111561284157fe5b9081600481111561284e57fe5b81525050856000015182602001818152505060018260400190151590811515815250506001866020015103866040018181525050506133d6565b607d7f010000000000000000000000000000000000000000000000000000000000000002817effffffffffffffffffffffffffffffffffffffffffffffffffffffffffffff1916148061291f5750605d7f010000000000000000000000000000000000000000000000000000000000000002817effffffffffffffffffffffffffffffffffffffffffffffffffffffffffffff1916145b15612b79576000607d7f010000000000000000000000000000000000000000000000000000000000000002827effffffffffffffffffffffffffffffffffffffffffffffffffffffffffffff19161461297957600261297c565b60015b90506000809050600188602001510394505b600085101515612a9b578b858151811015156129a657fe5b906020019060200201519350836040015180156129c557508360800151155b15612a8d578160048111156129d657fe5b846000015160048111156129e657fe5b141515612a0a5760018c60008090509c509c509c5050505050505050505050613401565b7fffffffffffffffffffffffffffffffffffffffffffffffffffffffffffffffff88604001818152505060018860000151018c86815181101515612a4a57fe5b90602001906020020151606001818152505060018c86815181101515612a6c57fe5b90602001906020020151608001901515908115158152505060019050612a9b565b84806001900395505061298e565b801515612abf5760018c60008090509c509c509c5050505050505050505050613401565b5b6000851115612b18578b85815181101515612ad757fe5b90602001906020020151935083604001518015612af657508360800151155b15612b0a5784886040018181525050612b18565b848060019003955050612ac0565b6000851415612b71578b85815181101515612b2f57fe5b90602001906020020151935083604001518015612b4e57508360800151155b15612b7057846fffffffffffffffffffffffffffffffff168860400181815250505b5b5050506133d6565b7f2200000000000000000000000000000000000000000000000000000000000000817effffffffffffffffffffffffffffffffffffffffffffffffffffffffffffff19161415612c6157612bce868b8a613c97565b9450600085141515612bf457848a60008090509a509a509a505050505050505050613401565b83806001019450507fffffffffffffffffffffffffffffffffffffffffffffffffffffffffffffffff8660400151141515612c5b57898660400151815181101515612c3b57fe5b9060200190602002015160a001805180919060010160ff1660ff16815250505b506133d6565b7f2000000000000000000000000000000000000000000000000000000000000000817effffffffffffffffffffffffffffffffffffffffffffffffffffffffffffff19161480612cf5575060117f010000000000000000000000000000000000000000000000000000000000000002817effffffffffffffffffffffffffffffffffffffffffffffffffffffffffffff1916145b80612d44575060127f010000000000000000000000000000000000000000000000000000000000000002817effffffffffffffffffffffffffffffffffffffffffffffffffffffffffffff1916145b80612d93575060147f010000000000000000000000000000000000000000000000000000000000000002817effffffffffffffffffffffffffffffffffffffffffffffffffffffffffffff1916145b15612d9e57506133d6565b7f3a00000000000000000000000000000000000000000000000000000000000000817effffffffffffffffffffffffffffffffffffffffffffffffffffffffffffff19161415612dff576001866020015103866040018181525050506133d6565b7f2c00000000000000000000000000000000000000000000000000000000000000817effffffffffffffffffffffffffffffffffffffffffffffffffffffffffffff19161415612ff0577fffffffffffffffffffffffffffffffffffffffffffffffffffffffffffffffff866040015114158015612eb3575060026004811115612e8557fe5b8a8760400151815181101515612e9757fe5b90602001906020020151600001516004811115612eb057fe5b14155b8015612ef5575060016004811115612ec757fe5b8a8760400151815181101515612ed957fe5b90602001906020020151600001516004811115612ef257fe5b14155b15612fea57600186602001510392505b600083101515612fe95760026004811115612f1c57fe5b8a84815181101515612f2a57fe5b90602001906020020151600001516004811115612f4357fe5b1480612f80575060016004811115612f5757fe5b8a84815181101515612f6557fe5b90602001906020020151600001516004811115612f7e57fe5b145b15612fdb578983815181101515612f9357fe5b90602001906020020151604001518015612fc657508983815181101515612fb657fe5b9060200190602002015160800151155b15612fda5782866040018181525050612fe9565b5b828060019003935050612f05565b5b506133d6565b7f3000000000000000000000000000000000000000000000000000000000000000817effffffffffffffffffffffffffffffffffffffffffffffffffffffffffffff19161015801561308457507f3900000000000000000000000000000000000000000000000000000000000000817effffffffffffffffffffffffffffffffffffffffffffffffffffffffffffff191611155b806130d057507f2d00000000000000000000000000000000000000000000000000000000000000817effffffffffffffffffffffffffffffffffffffffffffffffffffffffffffff1916145b8061311c57507f6600000000000000000000000000000000000000000000000000000000000000817effffffffffffffffffffffffffffffffffffffffffffffffffffffffffffff1916145b8061316857507f7400000000000000000000000000000000000000000000000000000000000000817effffffffffffffffffffffffffffffffffffffffffffffffffffffffffffff1916145b806131b457507f6e00000000000000000000000000000000000000000000000000000000000000817effffffffffffffffffffffffffffffffffffffffffffffffffffffffffffff1916145b1561331a577fffffffffffffffffffffffffffffffffffffffffffffffffffffffffffffffff866040015114151561327c578986604001518151811015156131f857fe5b9060200190602002015191506001600481111561321157fe5b8260000151600481111561322157fe5b148061325b57506003600481111561323557fe5b8260000151600481111561324557fe5b14801561325a575060008260a0015160ff1614155b5b1561327b5760018a60008090509a509a509a505050505050505050613401565b5b613287868b8a6143a2565b94506000851415156132ad57848a60008090509a509a509a505050505050505050613401565b83806001019450507fffffffffffffffffffffffffffffffffffffffffffffffffffffffffffffffff8660400151141515613314578986604001518151811015156132f457fe5b9060200190602002015160a001805180919060010160ff1660ff16815250505b506133d6565b60207f010000000000000000000000000000000000000000000000000000000000000002817effffffffffffffffffffffffffffffffffffffffffffffffffffffffffffff1916101580156133b45750607e7f010000000000000000000000000000000000000000000000000000000000000002817effffffffffffffffffffffffffffffffffffffffffffffffffffffffffffff191611155b156133d45760018a60008090509a509a509a505050505050505050613401565b505b84600001805180919060010181525050612636565b6000898660200151995099509950505050505050505b9250925092565b60608084905060608484036040519080825280601f01601f1916602001820160405280156134455781602001600182028038833980820191505090505b50905060008590505b848110156134fc57828181518110151561346457fe5b9060200101517f010000000000000000000000000000000000000000000000000000000000000090047f010000000000000000000000000000000000000000000000000000000000000002828783038151811015156134bf57fe5b9060200101907effffffffffffffffffffffffffffffffffffffffffffffffffffffffffffff1916908160001a905350808060010191505061344e565b5080925050509392505050565b600061351361498a565b61026060405190810160405280603060ff168152602001603160ff168152602001603060ff168152602001600d60ff168152602001600660ff168152602001600960ff168152602001606060ff168152602001608660ff168152602001604860ff168152602001600160ff168152602001606560ff168152602001600360ff168152602001600460ff168152602001600260ff168152602001600160ff168152602001600560ff168152602001600060ff168152602001600460ff168152602001602060ff168152509050600b602060ff16601301018351101515156135f857600080fd5b6000606061360787878761475b565b90506000815190506000865190506060816040519080825280601f01601f19166020018201604052801561364a5781602001600182028038833980820191505090505b5090508160208201846020870160056107d05a03fa50600060206013600385030303905060007f0100000000000000000000000000000000000000000000000000000000000000028260008151811015156136a157fe5b9060200101517f010000000000000000000000000000000000000000000000000000000000000090047f0100000000000000000000000000000000000000000000000000000000000000027effffffffffffffffffffffffffffffffffffffffffffffffffffffffffffff191614158061379b5750600182600181518110151561372757fe5b9060200101517f010000000000000000000000000000000000000000000000000000000000000090047f0100000000000000000000000000000000000000000000000000000000000000027f0100000000000000000000000000000000000000000000000000000000000000900460ff1614155b156137b0576001975050505050505050613b1f565b600295505b806002018610156138835760ff7f01000000000000000000000000000000000000000000000000000000000000000282878151811015156137f257fe5b9060200101517f010000000000000000000000000000000000000000000000000000000000000090047f0100000000000000000000000000000000000000000000000000000000000000027effffffffffffffffffffffffffffffffffffffffffffffffffffffffffffff1916141515613876576002975050505050505050613b1f565b85806001019650506137b5565b60007f01000000000000000000000000000000000000000000000000000000000000000282826002018151811015156138b857fe5b9060200101517f010000000000000000000000000000000000000000000000000000000000000090047f0100000000000000000000000000000000000000000000000000000000000000027effffffffffffffffffffffffffffffffffffffffffffffffffffffffffffff191614151561393c576003975050505050505050613b1f565b600095505b6013861015613a0857868660138110151561395857fe5b602002015160ff168287836003010181518110151561397357fe5b9060200101517f010000000000000000000000000000000000000000000000000000000000000090047f0100000000000000000000000000000000000000000000000000000000000000027f0100000000000000000000000000000000000000000000000000000000000000900460ff161415156139fb576004975050505050505050613b1f565b8580600101965050613941565b600095505b602060ff16861015613b13578b86602081101515613a2757fe5b1a7f0100000000000000000000000000000000000000000000000000000000000000027effffffffffffffffffffffffffffffffffffffffffffffffffffffffffffff191682876013846003010101815181101515613a8257fe5b9060200101517f010000000000000000000000000000000000000000000000000000000000000090047f0100000000000000000000000000000000000000000000000000000000000000027effffffffffffffffffffffffffffffffffffffffffffffffffffffffffffff1916141515613b06576005975050505050505050613b1f565b8580600101965050613a0d565b60009750505050505050505b949350505050565b613b2f61491f565b6060613b3961491f565b60606040519081016040528060008152602001600081526020017fffffffffffffffffffffffffffffffffffffffffffffffffffffffffffffffff8152509050606084604051908082528060200260200182016040528015613bb557816020015b613ba26149ae565b815260200190600190039081613b9a5790505b5090508181935093505050915091565b6000613bcf614941565b82518460200151101515613c07576000836001855103815181101515613bf157fe5b9060200190602002015180905091509150613c90565b613c0f614941565b60c06040519081016040528060006004811115613c2857fe5b81526020016000815260200160001515815260200160008152602001600015158152602001600060ff16815250905080848660200151815181101515613c6a57fe5b906020019060200201819052508460200180518091906001018152505060018192509250505b9250929050565b600080846000015190506000613cab614941565b866000018051809190600101815250505b845187600001511015614389576000858860000151815181101515613cdd57fe5b9060200101517f010000000000000000000000000000000000000000000000000000000000000090047f01000000000000000000000000000000000000000000000000000000000000000290507f2200000000000000000000000000000000000000000000000000000000000000817effffffffffffffffffffffffffffffffffffffffffffffffffffffffffffff19161415613dc557613d7e8888613bc5565b8093508194505050821515613da45783886000018181525050600394505050505061439b565b613db8826003600187018b6000015161482f565b600094505050505061439b565b605c817f0100000000000000000000000000000000000000000000000000000000000000900460ff16148015613e02575085516001896000015101105b1561437257876000018051809190600101815250507f2200000000000000000000000000000000000000000000000000000000000000868960000151815181101515613e4a57fe5b9060200101517f010000000000000000000000000000000000000000000000000000000000000090047f0100000000000000000000000000000000000000000000000000000000000000027effffffffffffffffffffffffffffffffffffffffffffffffffffffffffffff19161480613f6057507f2f00000000000000000000000000000000000000000000000000000000000000868960000151815181101515613ef157fe5b9060200101517f010000000000000000000000000000000000000000000000000000000000000090047f0100000000000000000000000000000000000000000000000000000000000000027effffffffffffffffffffffffffffffffffffffffffffffffffffffffffffff1916145b8061400857507f5c00000000000000000000000000000000000000000000000000000000000000868960000151815181101515613f9957fe5b9060200101517f010000000000000000000000000000000000000000000000000000000000000090047f0100000000000000000000000000000000000000000000000000000000000000027effffffffffffffffffffffffffffffffffffffffffffffffffffffffffffff1916145b806140b057507f660000000000000000000000000000000000000000000000000000000000000086896000015181518110151561404157fe5b9060200101517f010000000000000000000000000000000000000000000000000000000000000090047f0100000000000000000000000000000000000000000000000000000000000000027effffffffffffffffffffffffffffffffffffffffffffffffffffffffffffff1916145b8061415857507f72000000000000000000000000000000000000000000000000000000000000008689600001518151811015156140e957fe5b9060200101517f010000000000000000000000000000000000000000000000000000000000000090047f0100000000000000000000000000000000000000000000000000000000000000027effffffffffffffffffffffffffffffffffffffffffffffffffffffffffffff1916145b8061420057507f6e0000000000000000000000000000000000000000000000000000000000000086896000015181518110151561419157fe5b9060200101517f010000000000000000000000000000000000000000000000000000000000000090047f0100000000000000000000000000000000000000000000000000000000000000027effffffffffffffffffffffffffffffffffffffffffffffffffffffffffffff1916145b806142a857507f620000000000000000000000000000000000000000000000000000000000000086896000015181518110151561423957fe5b9060200101517f010000000000000000000000000000000000000000000000000000000000000090047f0100000000000000000000000000000000000000000000000000000000000000027effffffffffffffffffffffffffffffffffffffffffffffffffffffffffffff1916145b8061435057507f74000000000000000000000000000000000000000000000000000000000000008689600001518151811015156142e157fe5b9060200101517f010000000000000000000000000000000000000000000000000000000000000090047f0100000000000000000000000000000000000000000000000000000000000000027effffffffffffffffffffffffffffffffffffffffffffffffffffffffffffff1916145b1561435b5750614374565b83886000018181525050600194505050505061439b565b505b86600001805180919060010181525050613cbc565b82876000018181525050600293505050505b9392505050565b600080600090506000856000015190506000806143bd614941565b5b8651896000015110156146d8578689600001518151811015156143dd57fe5b9060200101517f010000000000000000000000000000000000000000000000000000000000000090047f01000000000000000000000000000000000000000000000000000000000000000292507f2000000000000000000000000000000000000000000000000000000000000000837effffffffffffffffffffffffffffffffffffffffffffffffffffffffffffff191614806144bb57507f0900000000000000000000000000000000000000000000000000000000000000837effffffffffffffffffffffffffffffffffffffffffffffffffffffffffffff1916145b8061450757507f0a00000000000000000000000000000000000000000000000000000000000000837effffffffffffffffffffffffffffffffffffffffffffffffffffffffffffff1916145b8061455357507f0d00000000000000000000000000000000000000000000000000000000000000837effffffffffffffffffffffffffffffffffffffffffffffffffffffffffffff1916145b8061459f57507f2c00000000000000000000000000000000000000000000000000000000000000837effffffffffffffffffffffffffffffffffffffffffffffffffffffffffffff1916145b806145ee5750607d7f010000000000000000000000000000000000000000000000000000000000000002837effffffffffffffffffffffffffffffffffffffffffffffffffffffffffffff1916145b8061463d5750605d7f010000000000000000000000000000000000000000000000000000000000000002837effffffffffffffffffffffffffffffffffffffffffffffffffffffffffffff1916145b1561464b57600194506146d8565b6020837f0100000000000000000000000000000000000000000000000000000000000000900460ff1610806146a65750607f837f0100000000000000000000000000000000000000000000000000000000000000900460ff16115b156146c35783896000018181525050600195505050505050614754565b886000018051809190600101815250506143be565b8415156146f75783896000018181525050600295505050505050614754565b6147018989613bc5565b80925081935050508115156147285783896000018181525050600395505050505050614754565b614739816004868c6000015161482f565b88600001805180919060019003815250506000955050505050505b9392505050565b60606000825184518651606001010190506000855190506000855190506000855190506000806000806060886040519080825280601f01601f1916602001820160405280156147b95781602001600182028038833980820191505090505b50905060208d01945060208c01935060208b0192508760208201528660408201528560608201526020810191506147f560608301868f516148a0565b6148078d516060840101858e516148a0565b61481c8c518e51606085010101848d516148a0565b8099505050505050505050509392505050565b828460000190600481111561484057fe5b9081600481111561484d57fe5b8152505081846020018181525050600184604001901515908115158152505080846060018181525050600184608001901515908115158152505060008460a0019060ff16908160ff168152505050505050565b5b6020811015156148c657815183526020830192506020820191506020810390506148a1565b60006001826020036101000a0390508019835116818551168181178652505050505050565b604080519081016040528060008152602001600081525090565b604080519081016040528060008152602001600081525090565b6060604051908101604052806000815260200160008152602001600081525090565b60c0604051908101604052806000600481111561495a57fe5b81526020016000815260200160001515815260200160008152602001600015158152602001600060ff1681525090565b61026060405190810160405280601390602082028038833980820191505090505090565b60c060405190810160405280600060048111156149c757fe5b81526020016000815260200160001515815260200160008152602001600015158152602001600060ff168152509056fe4142434445464748494a4b4c4d4e4f505152535455565758595a6162636465666768696a6b6c6d6e6f707172737475767778797a303132333435363738392d5f4578706563746564204a575420746f20636f6e7461696e206f6e6c7920737472696e67206b65797300000000000000000000000000000000000000000000000000000000000000000000000000000000000000000000000000000000000000000000000000000000000000000000000000000000000000000000000000000000000000000000000000000000000000000000000000000000000000000000000000000000000000000000000000000000000000000000000000000000000000000000000000000000000000000000000000000000000000000000000000000000000000000000000000000000000000000000000000000000000000000000000000000000000000000000000000000000000000000000000000000000000000000000000000010001a165627a7a7230582063847d203f97a8b80931128cbee93b98cd08b4ed9785c4b266b2cfab91988ee10029",
  "source": "pragma solidity ^0.5.0;\n\nimport \"./Base64.sol\";\nimport \"./JsmnSolLib.sol\";\nimport \"./JWT.sol\";\nimport \"./SolRsaVerify.sol\";\nimport \"./Strings.sol\";\nimport \"./JWKS.sol\";\nimport \"./IERC20.sol\";\n\ncontract Identity {\n\n  using Base64 for string;\n  using StringUtils for *;\n  using SolRsaVerify for *;\n  using JsmnSolLib for string;\n\n  mapping (address => bool) public accounts;\n  address[] private accountsList;\n  string public audience;\n  string public subject;\n  JWKS public keys;\n  IERC20 public erc20;\n\n  event Log(string log, address add, uint256 amount);\n  \n  constructor(string memory sub, string memory aud, JWKS jwks, IERC20 _erc20) public payable {\n    accounts[msg.sender] = true;\n    accountsList.push(msg.sender);\n    audience = aud;\n    subject = sub;\n    keys = jwks;\n    erc20 = _erc20;\n  }\n\n  function recover(string memory headerJson, string memory payloadJson, bytes memory signature, uint256 tokens) public {\n    string memory headerBase64 = headerJson.encode();\n    string memory payloadBase64 = payloadJson.encode();\n    StringUtils.slice[] memory slices = new StringUtils.slice[](2);\n    slices[0] = headerBase64.toSlice();\n    slices[1] = payloadBase64.toSlice();\n    string memory message = \".\".toSlice().join(slices);\n    string memory kid = parseHeader(headerJson);\n    bytes memory exponent = getRsaExponent(kid);\n    bytes memory modulus = getRsaModulus(kid);\n    require(message.pkcs1Sha256VerifyStr(signature, exponent, modulus) == 0, \"RSA signature check failed\");\n\n    (string memory aud, string memory nonce, string memory sub) = parseToken(payloadJson);\n     \n    require(aud.strCompare(audience) == 0 || true, \"Audience does not match\");\n    require(sub.strCompare(subject) == 0, \"Subject does not match\");\n\n    string memory senderPlusAmountBase64 = string(abi.encodePacked(msg.sender, tokens)).encode();\n    require(senderPlusAmountBase64.strCompare(nonce) == 0, \"Sender does not match nonce\");\n\n    emit Log(senderPlusAmountBase64, msg.sender, tokens);\n    // require(erc20.transfer(msg.sender, tokens), \"transfer failed\");\n    // if (!accounts[msg.sender]) {\n    //   accounts[msg.sender] = true;\n    //   accountsList.push(msg.sender);\n    // }\n  }\n\n  function parseHeader(string memory json) internal pure returns (string memory kid) {\n    (uint exitCode, JsmnSolLib.Token[] memory tokens, uint ntokens) = json.parse(20);\n    require(exitCode == 0, \"JSON parse failed\");\n    \n    require(tokens[0].jsmnType == JsmnSolLib.JsmnType.OBJECT, \"Expected JWT to be an object\");\n    uint i = 1;\n    while (i < ntokens) {\n      require(tokens[i].jsmnType == JsmnSolLib.JsmnType.STRING, \"Expected JWT to contain only string keys\");\n      string memory key = json.getBytes(tokens[i].start, tokens[i].end);\n      if (key.strCompare(\"kid\") == 0) {\n        require(tokens[i+1].jsmnType == JsmnSolLib.JsmnType.STRING, \"Expected kid to be a string\");\n        return json.getBytes(tokens[i+1].start, tokens[i+1].end);\n      }\n      i += 2;\n    }\n  }\n\n  function parseToken(string memory json) internal pure returns (string memory aud, string memory nonce, string memory sub) {\n    (uint exitCode, JsmnSolLib.Token[] memory tokens, uint ntokens) = json.parse(40);\n    require(exitCode == 0, \"JSON parse failed\");\n    \n    require(tokens[0].jsmnType == JsmnSolLib.JsmnType.OBJECT, \"Expected JWT to be an object\");\n    uint i = 1;\n    while (i < ntokens) {\n      require(tokens[i].jsmnType == JsmnSolLib.JsmnType.STRING, \"Expected JWT to contain only string keys\");\n      string memory key = json.getBytes(tokens[i].start, tokens[i].end);\n      if (key.strCompare(\"sub\") == 0) {\n        require(tokens[i+1].jsmnType == JsmnSolLib.JsmnType.STRING, \"Expected sub to be a string\");\n        sub = json.getBytes(tokens[i+1].start, tokens[i+1].end);\n      } else if (key.strCompare(\"aud\") == 0) {\n        require(tokens[i+1].jsmnType == JsmnSolLib.JsmnType.STRING, \"Expected aud to be a string\");\n        aud = json.getBytes(tokens[i+1].start, tokens[i+1].end);\n      } else if (key.strCompare(\"nonce\") == 0) {\n        require(tokens[i+1].jsmnType == JsmnSolLib.JsmnType.STRING, \"Expected nonce to be a string\");\n        nonce = json.getBytes(tokens[i+1].start, tokens[i+1].end);\n      }\n      i += 2;\n    }\n  }\n\n  function getRsaModulus(string memory kid) internal view returns (bytes memory modulus) {\n    modulus = keys.getModulus(kid);\n    if (modulus.length == 0) revert(\"Key not found\");\n  }\n\n  function getRsaExponent(string memory) internal pure returns (bytes memory) {\n    return hex\"00000000000000000000000000000000000000000000000000000000000000000000000000000000000000000000000000000000000000000000000000000000000000000000000000000000000000000000000000000000000000000000000000000000000000000000000000000000000000000000000000000000000000000000000000000000000000000000000000000000000000000000000000000000000000000000000000000000000000000000000000000000000000000000000000000000000000000000000000000000000000000000000000000000000000000000000000000000000000000000000000000000000000000000000000010001\";\n  }\n\n  function getAccounts() public view returns (address[] memory) {\n    return accountsList;\n  }\n}",
  "sourcePath": "/home/billy/GitHub.com/okwme/sheetcoin/contracts/Identity.sol",
  "compiler": {
    "name": "solc",
    "version": "0.5.4+commit.9549d8ff.Emscripten.clang"
  },
  "schemaVersion": "3.0.6",
  "updatedAt": "2019-11-09T14:30:34.601Z",
  "devdoc": {
    "methods": {}
  },
  "userdoc": {
    "methods": {}
  }
}