{
  "contractName": "SolRsaVerify",
  "abi": [
    {
      "constant": true,
      "inputs": [
        {
          "name": "_sha256",
          "type": "bytes32"
        },
        {
          "name": "_s",
          "type": "bytes"
        },
        {
          "name": "_e",
          "type": "bytes"
        },
        {
          "name": "_m",
          "type": "bytes"
        }
      ],
      "name": "pkcs1Sha256Verify",
      "outputs": [
        {
          "name": "",
          "type": "uint256"
        }
      ],
      "payable": false,
      "stateMutability": "view",
      "type": "function"
    }
  ],
  "bytecode": "0x6109eb610030600b82828239805160001a6073146000811461002057610022565bfe5b5030600052607381538281f3fe7300000000000000000000000000000000000000003014608060405260043610610052576000357c010000000000000000000000000000000000000000000000000000000090048063a1a8858f14610057575b600080fd5b6102486004803603608081101561006d57600080fd5b81019080803590602001909291908035906020019064010000000081111561009457600080fd5b8201836020820111156100a657600080fd5b803590602001918460018302840111640100000000831117156100c857600080fd5b91908080601f016020809104026020016040519081016040528093929190818152602001838380828437600081840152601f19601f8201169050808301925050505050505091929192908035906020019064010000000081111561012b57600080fd5b82018360208201111561013d57600080fd5b8035906020019184600183028401116401000000008311171561015f57600080fd5b91908080601f016020809104026020016040519081016040528093929190818152602001838380828437600081840152601f19601f820116905080830192505050505050509192919290803590602001906401000000008111156101c257600080fd5b8201836020820111156101d457600080fd5b803590602001918460018302840111640100000000831117156101f657600080fd5b91908080601f016020809104026020016040519081016040528093929190818152602001838380828437600081840152601f19601f82011690508083019250505050505050919291929050505061025e565b6040518082815260200191505060405180910390f35b600061026861099b565b61026060405190810160405280603060ff168152602001603160ff168152602001603060ff168152602001600d60ff168152602001600660ff168152602001600960ff168152602001606060ff168152602001608660ff168152602001604860ff168152602001600160ff168152602001606560ff168152602001600360ff168152602001600460ff168152602001600260ff168152602001600160ff168152602001600560ff168152602001600060ff168152602001600460ff168152602001602060ff168152509050600b602060ff166013010183511015151561034d57600080fd5b6000606061035c87878761087c565b90506000815190506000865190506060816040519080825280601f01601f19166020018201604052801561039f5781602001600182028038833980820191505090505b5090508160208201846020870160056107d05a03fa50600060206013600385030303905060007f0100000000000000000000000000000000000000000000000000000000000000028260008151811015156103f657fe5b9060200101517f010000000000000000000000000000000000000000000000000000000000000090047f0100000000000000000000000000000000000000000000000000000000000000027effffffffffffffffffffffffffffffffffffffffffffffffffffffffffffff19161415806104f05750600182600181518110151561047c57fe5b9060200101517f010000000000000000000000000000000000000000000000000000000000000090047f0100000000000000000000000000000000000000000000000000000000000000027f0100000000000000000000000000000000000000000000000000000000000000900460ff1614155b15610505576001975050505050505050610874565b600295505b806002018610156105d85760ff7f010000000000000000000000000000000000000000000000000000000000000002828781518110151561054757fe5b9060200101517f010000000000000000000000000000000000000000000000000000000000000090047f0100000000000000000000000000000000000000000000000000000000000000027effffffffffffffffffffffffffffffffffffffffffffffffffffffffffffff19161415156105cb576002975050505050505050610874565b858060010196505061050a565b60007f010000000000000000000000000000000000000000000000000000000000000002828260020181518110151561060d57fe5b9060200101517f010000000000000000000000000000000000000000000000000000000000000090047f0100000000000000000000000000000000000000000000000000000000000000027effffffffffffffffffffffffffffffffffffffffffffffffffffffffffffff1916141515610691576003975050505050505050610874565b600095505b601386101561075d5786866013811015156106ad57fe5b602002015160ff16828783600301018151811015156106c857fe5b9060200101517f010000000000000000000000000000000000000000000000000000000000000090047f0100000000000000000000000000000000000000000000000000000000000000027f0100000000000000000000000000000000000000000000000000000000000000900460ff16141515610750576004975050505050505050610874565b8580600101965050610696565b600095505b602060ff16861015610868578b8660208110151561077c57fe5b1a7f0100000000000000000000000000000000000000000000000000000000000000027effffffffffffffffffffffffffffffffffffffffffffffffffffffffffffff1916828760138460030101018151811015156107d757fe5b9060200101517f010000000000000000000000000000000000000000000000000000000000000090047f0100000000000000000000000000000000000000000000000000000000000000027effffffffffffffffffffffffffffffffffffffffffffffffffffffffffffff191614151561085b576005975050505050505050610874565b8580600101965050610762565b60009750505050505050505b949350505050565b60606000825184518651606001010190506000855190506000855190506000855190506000806000806060886040519080825280601f01601f1916602001820160405280156108da5781602001600182028038833980820191505090505b50905060208d01945060208c01935060208b01925087602082015286604082015285606082015260208101915061091660608301868f51610950565b6109288d516060840101858e51610950565b61093d8c518e51606085010101848d51610950565b8099505050505050505050509392505050565b5b6020811015156109765781518352602083019250602082019150602081039050610951565b60006001826020036101000a0390508019835116818551168181178652505050505050565b6102606040519081016040528060139060208202803883398082019150509050509056fea165627a7a723058204bbd82b4400ebe9977ec41f264c9366dfd15433e73857bb04d9b17ac3542233a0029",
  "source": "pragma solidity ^0.5.0;\n\n/*\n    Copyright 2016, Adrià Massanet\n\n    This program is free software: you can redistribute it and/or modify\n    it under the terms of the GNU General Public License as published by\n    the Free Software Foundation, either version 3 of the License, or\n    (at your option) any later version.\n\n    This program is distributed in the hope that it will be useful,\n    but WITHOUT ANY WARRANTY; without even the implied warranty of\n    MERCHANTABILITY or FITNESS FOR A PARTICULAR PURPOSE.  See the\n    GNU General Public License for more details.\n\n    You should have received a copy of the GNU General Public License\n    along with this program.  If not, see <http://www.gnu.org/licenses/>.\n    \n    Checked results with FIPS test vectors\n    https://csrc.nist.gov/CSRC/media/Projects/Cryptographic-Algorithm-Validation-Program/documents/dss/186-2rsatestvectors.zip\n    file SigVer15_186-3.rsp\n    \n */\n\nlibrary SolRsaVerify {\n    function memcpy(uint _dest, uint _src, uint _len) pure internal {\n        // Copy word-length chunks while possible\n        for ( ;_len >= 32; _len -= 32) {\n            assembly {\n                mstore(_dest, mload(_src))\n            }\n            _dest += 32;\n            _src += 32;\n        }\n\n        // Copy remaining bytes\n        uint mask = 256 ** (32 - _len) - 1;\n        assembly {\n            let srcpart := and(mload(_src), not(mask))\n            let destpart := and(mload(_dest), mask)\n            mstore(_dest, or(destpart, srcpart))\n        }\n    }\n\n    \n    function join(\n\tbytes memory _s, bytes memory _e, bytes memory _m\n    ) pure internal returns (bytes memory) {\n        uint inputLen = 0x60+_s.length+_e.length+_m.length;\n        \n        uint slen = _s.length;\n        uint elen = _e.length;\n        uint mlen = _m.length;\n        uint sptr;\n        uint eptr;\n        uint mptr;\n        uint inputPtr;\n        \n        bytes memory input = new bytes(inputLen);\n        assembly {\n            sptr := add(_s,0x20)\n            eptr := add(_e,0x20)\n            mptr := add(_m,0x20)\n            mstore(add(input,0x20),slen)\n            mstore(add(input,0x40),elen)\n            mstore(add(input,0x60),mlen)\n            inputPtr := add(input,0x20)\n        }\n        memcpy(inputPtr+0x60,sptr,_s.length);        \n        memcpy(inputPtr+0x60+_s.length,eptr,_e.length);        \n        memcpy(inputPtr+0x60+_s.length+_e.length,mptr,_m.length);\n\n        return input;\n    }\n    \n    /** @dev Verifies a PKCSv1.5 SSolRsaVerifyHA256 signature\n      * @param _sha256 is the sha256 of the data\n      * @param _s is the signature\n      * @param _e is the exponent\n      * @param _m is the modulus\n      * @return 0 if success, >0 otherwise\n    */    \n    function pkcs1Sha256Verify(\n        bytes32 _sha256,\n        bytes memory _s, bytes memory _e, bytes memory _m\n    ) public view returns (uint) {\n        \n        uint8[19] memory sha256Prefix = [\n            0x30, 0x31, 0x30, 0x0d, 0x06, 0x09, 0x60, 0x86, 0x48, 0x01, 0x65, 0x03, 0x04, 0x02, 0x01, 0x05, 0x00, 0x04, 0x20\n        ];\n        \n      \trequire(_m.length >= sha256Prefix.length+_sha256.length+11);\n\n        uint i;\n\n        /// decipher\n        bytes memory input = join(_s,_e,_m);\n        uint inputlen = input.length;\n\n        uint decipherlen = _m.length;\n        bytes memory decipher = new bytes(decipherlen);\n        assembly {\n            pop(staticcall(sub(gas, 2000), 5, add(input,0x20), inputlen, add(decipher,0x20), decipherlen))\n\t    }\n        \n        /// 0x00 || 0x01 || PS || 0x00 || DigestInfo\n        /// PS is padding filled with 0xff\n        //  DigestInfo ::= SEQUENCE {\n        //     digestAlgorithm AlgorithmIdentifier,\n        //     digest OCTET STRING\n        //  }\n        \n        uint paddingLen = decipherlen - 3 - sha256Prefix.length - 32;\n        \n        if (decipher[0] != 0 || uint8(decipher[1]) != 1) {\n            return 1;\n        }\n        for (i = 2;i<2+paddingLen;i++) {\n            if (decipher[i] != 0xff) {\n                return 2;\n            }\n        }\n        if (decipher[2+paddingLen] != 0) {\n            return 3;\n        }\n        for (i = 0;i<sha256Prefix.length;i++) {\n            if (uint8(decipher[3+paddingLen+i])!=sha256Prefix[i]) {\n                return 4;\n            }\n        }\n        for (i = 0;i<_sha256.length;i++) {\n            if (decipher[3+paddingLen+sha256Prefix.length+i]!=_sha256[i]) {\n                return 5;\n            }\n        }\n\n        return 0;\n    }\n\n    /** @dev Verifies a PKCSv1.5 SHA256 signature\n      * @param _data to verify\n      * @param _s is the signature\n      * @param _e is the exponent\n      * @param _m is the modulus\n      * @return 0 if success, >0 otherwise\n    */    \n    function pkcs1Sha256VerifyRaw(\n        bytes memory _data, \n        bytes memory _s, bytes memory _e, bytes memory _m\n    ) internal view returns (uint) {\n        return pkcs1Sha256Verify(sha256(_data),_s,_e,_m);\n    }\n\n    function pkcs1Sha256VerifyStr(\n        string memory _data, \n        bytes memory _s, bytes memory _e, bytes memory _m\n    ) internal view returns (uint) {\n        return pkcs1Sha256Verify(sha256(bytes(_data)),_s,_e,_m);\n    }\n\n}",
  "sourcePath": "/home/billy/GitHub.com/okwme/sheetcoin/contracts/SolRsaVerify.sol",
  "compiler": {
    "name": "solc",
    "version": "0.5.4+commit.9549d8ff.Emscripten.clang"
  },
  "schemaVersion": "3.0.6",
  "updatedAt": "2019-11-09T14:30:34.584Z",
  "devdoc": {
    "methods": {
      "pkcs1Sha256Verify(bytes32,bytes,bytes,bytes)": {
        "details": "Verifies a PKCSv1.5 SSolRsaVerifyHA256 signature",
        "params": {
          "_e": "is the exponent",
          "_m": "is the modulus",
          "_s": "is the signature",
          "_sha256": "is the sha256 of the data"
        },
        "return": "0 if success, >0 otherwise"
      }
    }
  },
  "userdoc": {
    "methods": {}
  }
}