{
  "contractName": "TestIdentity",
  "abi": [
    {
      "constant": true,
      "inputs": [],
      "name": "subject",
      "outputs": [
        {
          "name": "",
          "type": "string"
        }
      ],
      "payable": false,
      "stateMutability": "view",
      "type": "function"
    },
    {
      "constant": true,
      "inputs": [],
      "name": "audience",
      "outputs": [
        {
          "name": "",
          "type": "string"
        }
      ],
      "payable": false,
      "stateMutability": "view",
      "type": "function"
    },
    {
      "constant": true,
      "inputs": [],
      "name": "keys",
      "outputs": [
        {
          "name": "",
          "type": "address"
        }
      ],
      "payable": false,
      "stateMutability": "view",
      "type": "function"
    },
    {
      "constant": false,
      "inputs": [
        {
          "name": "headerJson",
          "type": "string"
        },
        {
          "name": "payloadJson",
          "type": "string"
        },
        {
          "name": "signature",
          "type": "bytes"
        },
        {
          "name": "tokens",
          "type": "uint256"
        }
      ],
      "name": "recover",
      "outputs": [],
      "payable": false,
      "stateMutability": "nonpayable",
      "type": "function"
    },
    {
      "constant": true,
      "inputs": [
        {
          "name": "",
          "type": "address"
        }
      ],
      "name": "accounts",
      "outputs": [
        {
          "name": "",
          "type": "bool"
        }
      ],
      "payable": false,
      "stateMutability": "view",
      "type": "function"
    },
    {
      "constant": true,
      "inputs": [],
      "name": "erc20",
      "outputs": [
        {
          "name": "",
          "type": "address"
        }
      ],
      "payable": false,
      "stateMutability": "view",
      "type": "function"
    },
    {
      "constant": true,
      "inputs": [],
      "name": "getAccounts",
      "outputs": [
        {
          "name": "",
          "type": "address[]"
        }
      ],
      "payable": false,
      "stateMutability": "view",
      "type": "function"
    },
    {
      "inputs": [
        {
          "name": "sub",
          "type": "string"
        },
        {
          "name": "aud",
          "type": "string"
        }
      ],
      "payable": true,
      "stateMutability": "payable",
      "type": "constructor"
    },
    {
      "anonymous": false,
      "inputs": [
        {
          "indexed": false,
          "name": "log",
          "type": "string"
        },
        {
          "indexed": false,
          "name": "add",
          "type": "address"
        },
        {
          "indexed": false,
          "name": "amount",
          "type": "uint256"
        }
      ],
      "name": "Log",
      "type": "event"
    }
  ],
  "bytecode": "0x608060405260405162004d3a38038062004d3a833981018060405260408110156200002957600080fd5b8101908080516401000000008111156200004257600080fd5b828101905060208101848111156200005957600080fd5b81518560018202830111640100000000821117156200007757600080fd5b505092919060200180516401000000008111156200009457600080fd5b82810190506020810184811115620000ab57600080fd5b8151856001820283011164010000000082111715620000c957600080fd5b5050929190505050818160008060016000803373ffffffffffffffffffffffffffffffffffffffff1673ffffffffffffffffffffffffffffffffffffffff16815260200190815260200160002060006101000a81548160ff02191690831515021790555060013390806001815401808255809150509060018203906000526020600020016000909192909190916101000a81548173ffffffffffffffffffffffffffffffffffffffff021916908373ffffffffffffffffffffffffffffffffffffffff160217905550508260029080519060200190620001ab92919062000253565b508360039080519060200190620001c492919062000253565b5081600460006101000a81548173ffffffffffffffffffffffffffffffffffffffff021916908373ffffffffffffffffffffffffffffffffffffffff16021790555080600560006101000a81548173ffffffffffffffffffffffffffffffffffffffff021916908373ffffffffffffffffffffffffffffffffffffffff16021790555050505050505062000302565b828054600181600116156101000203166002900490600052602060002090601f016020900481019282601f106200029657805160ff1916838001178555620002c7565b82800160010185558215620002c7579182015b82811115620002c6578251825591602001919060010190620002a9565b5b509050620002d69190620002da565b5090565b620002ff91905b80821115620002fb576000816000905550600101620002e1565b5090565b90565b614a2880620003126000396000f3fe608060405234801561001057600080fd5b506004361061009a576000357c0100000000000000000000000000000000000000000000000000000000900480634b3383b0116100785780634b3383b0146101ef5780635e5c06e2146103e2578063785e9e861461043e5780638a48ac03146104885761009a565b80630a59a98c1461009f5780631ee1f80014610122578063307540f6146101a5575b600080fd5b6100a76104e7565b6040518080602001828103825283818151815260200191508051906020019080838360005b838110156100e75780820151818401526020810190506100cc565b50505050905090810190601f1680156101145780820380516001836020036101000a031916815260200191505b509250505060405180910390f35b61012a610585565b6040518080602001828103825283818151815260200191508051906020019080838360005b8381101561016a57808201518184015260208101905061014f565b50505050905090810190601f1680156101975780820380516001836020036101000a031916815260200191505b509250505060405180910390f35b6101ad610623565b604051808273ffffffffffffffffffffffffffffffffffffffff1673ffffffffffffffffffffffffffffffffffffffff16815260200191505060405180910390f35b6103e06004803603608081101561020557600080fd5b810190808035906020019064010000000081111561022257600080fd5b82018360208201111561023457600080fd5b8035906020019184600183028401116401000000008311171561025657600080fd5b91908080601f016020809104026020016040519081016040528093929190818152602001838380828437600081840152601f19601f820116905080830192505050505050509192919290803590602001906401000000008111156102b957600080fd5b8201836020820111156102cb57600080fd5b803590602001918460018302840111640100000000831117156102ed57600080fd5b91908080601f016020809104026020016040519081016040528093929190818152602001838380828437600081840152601f19601f8201169050808301925050505050505091929192908035906020019064010000000081111561035057600080fd5b82018360208201111561036257600080fd5b8035906020019184600183028401116401000000008311171561038457600080fd5b91908080601f016020809104026020016040519081016040528093929190818152602001838380828437600081840152601f19601f82011690508083019250505050505050919291929080359060200190929190505050610649565b005b610424600480360360208110156103f857600080fd5b81019080803573ffffffffffffffffffffffffffffffffffffffff169060200190929190505050610c3d565b604051808215151515815260200191505060405180910390f35b610446610c5d565b604051808273ffffffffffffffffffffffffffffffffffffffff1673ffffffffffffffffffffffffffffffffffffffff16815260200191505060405180910390f35b610490610c83565b6040518080602001828103825283818151815260200191508051906020019060200280838360005b838110156104d35780820151818401526020810190506104b8565b505050509050019250505060405180910390f35b60038054600181600116156101000203166002900480601f01602080910402602001604051908101604052809291908181526020018280546001816001161561010002031660029004801561057d5780601f106105525761010080835404028352916020019161057d565b820191906000526020600020905b81548152906001019060200180831161056057829003601f168201915b505050505081565b60028054600181600116156101000203166002900480601f01602080910402602001604051908101604052809291908181526020018280546001816001161561010002031660029004801561061b5780601f106105f05761010080835404028352916020019161061b565b820191906000526020600020905b8154815290600101906020018083116105fe57829003601f168201915b505050505081565b600460009054906101000a900473ffffffffffffffffffffffffffffffffffffffff1681565b606061065485610d11565b9050606061066185610d11565b9050606060026040519080825280602002602001820160405280156106a057816020015b61068d614708565b8152602001906001900390816106855790505b5090506106ac83611257565b8160008151811015156106bb57fe5b906020019060200201819052506106d182611257565b8160018151811015156106e057fe5b90602001906020020181905250606061073f826107316040805190810160405280600181526020017f2e00000000000000000000000000000000000000000000000000000000000000815250611257565b61128590919063ffffffff16565b9050606061074c896113e9565b9050606061075982611786565b90506060610766836117a9565b905060006107818a8484886117cf909392919063ffffffff16565b1415156107f6576040517f08c379a000000000000000000000000000000000000000000000000000000000815260040180806020018281038252601a8152602001807f525341207369676e617475726520636865636b206661696c656400000000000081525060200191505060405180910390fd5b60608060606108048d611886565b92509250925060006108b960028054600181600116156101000203166002900480601f0160208091040260200160405190810160405280929190818152602001828054600181600116156101000203166002900480156108a55780601f1061087a576101008083540402835291602001916108a5565b820191906000526020600020905b81548152906001019060200180831161088857829003601f168201915b505050505085611ec890919063ffffffff16565b14806108c3575060015b1515610937576040517f08c379a00000000000000000000000000000000000000000000000000000000081526004018080602001828103825260178152602001807f41756469656e636520646f6573206e6f74206d6174636800000000000000000081525060200191505060405180910390fd5b60006109e660038054600181600116156101000203166002900480601f0160208091040260200160405190810160405280929190818152602001828054600181600116156101000203166002900480156109d25780601f106109a7576101008083540402835291602001916109d2565b820191906000526020600020905b8154815290600101906020018083116109b557829003601f168201915b505050505083611ec890919063ffffffff16565b141515610a5b576040517f08c379a00000000000000000000000000000000000000000000000000000000081526004018080602001828103825260168152602001807f5375626a65637420646f6573206e6f74206d617463680000000000000000000081525060200191505060405180910390fd5b6060610ac8338d604051602001808373ffffffffffffffffffffffffffffffffffffffff1673ffffffffffffffffffffffffffffffffffffffff166c0100000000000000000000000002815260140182815260200192505050604051602081830303815290604052610d11565b90506000610adf8483611ec890919063ffffffff16565b141515610b54576040517f08c379a000000000000000000000000000000000000000000000000000000000815260040180806020018281038252601b8152602001807f53656e64657220646f6573206e6f74206d61746368206e6f6e6365000000000081525060200191505060405180910390fd5b7f31f37e75fc861191c989b3f8011596a4c0dd2bd2b255a7072a7d94fdb895a72481338e60405180806020018473ffffffffffffffffffffffffffffffffffffffff1673ffffffffffffffffffffffffffffffffffffffff168152602001838152602001828103825285818151815260200191508051906020019080838360005b83811015610bf0578082015181840152602081019050610bd5565b50505050905090810190601f168015610c1d5780820380516001836020036101000a031916815260200191505b5094505050505060405180910390a1505050505050505050505050505050565b60006020528060005260406000206000915054906101000a900460ff1681565b600560009054906101000a900473ffffffffffffffffffffffffffffffffffffffff1681565b60606001805480602002602001604051908101604052809291908181526020018280548015610d0757602002820191906000526020600020905b8160009054906101000a900473ffffffffffffffffffffffffffffffffffffffff1673ffffffffffffffffffffffffffffffffffffffff1681526020019060010190808311610cbd575b5050505050905090565b606080829050600060038251811515610d2657fe5b0690506000600382600303811515610d3a57fe5b06600460036002865101811515610d4d57fe5b04020390506060816040519080825280601f01601f191660200182016040528015610d875781602001600182028038833980820191505090505b509050600080905060008090505b85516003830111151561103757610f2d8683815181101515610db357fe5b9060200101517f010000000000000000000000000000000000000000000000000000000000000090047f0100000000000000000000000000000000000000000000000000000000000000027f0100000000000000000000000000000000000000000000000000000000000000900460ff168760018501815181101515610e3557fe5b9060200101517f010000000000000000000000000000000000000000000000000000000000000090047f0100000000000000000000000000000000000000000000000000000000000000027f0100000000000000000000000000000000000000000000000000000000000000900460ff168860028601815181101515610eb757fe5b9060200101517f010000000000000000000000000000000000000000000000000000000000000090047f0100000000000000000000000000000000000000000000000000000000000000027f0100000000000000000000000000000000000000000000000000000000000000900460ff1661218e565b8685815181101515610f3b57fe5b90602001018760018701815181101515610f5157fe5b90602001018860028801815181101515610f6757fe5b90602001018960038901815181101515610f7d57fe5b9060200101847effffffffffffffffffffffffffffffffffffffffffffffffffffffffffffff191660001a9053847effffffffffffffffffffffffffffffffffffffffffffffffffffffffffffff191660001a9053847effffffffffffffffffffffffffffffffffffffffffffffffffffffffffffff191660001a9053847effffffffffffffffffffffffffffffffffffffffffffffffffffffffffffff191660001a905350505050600481019050600382019150610d95565b600085141515611249576000868688510381518110151561105457fe5b9060200101517f010000000000000000000000000000000000000000000000000000000000000090047f0100000000000000000000000000000000000000000000000000000000000000027f01000000000000000000000000000000000000000000000000000000000000009004905060008090506002871415611155578760018951038151811015156110e457fe5b9060200101517f010000000000000000000000000000000000000000000000000000000000000090047f0100000000000000000000000000000000000000000000000000000000000000027f0100000000000000000000000000000000000000000000000000000000000000900490505b60008060008061116d8660ff168660ff16600061218e565b935093509350935083898881518110151561118457fe5b9060200101907effffffffffffffffffffffffffffffffffffffffffffffffffffffffffffff1916908160001a9053508289600189018151811015156111c657fe5b9060200101907effffffffffffffffffffffffffffffffffffffffffffffffffffffffffffff1916908160001a90535060028b14156112425781896002890181518110151561121157fe5b9060200101907effffffffffffffffffffffffffffffffffffffffffffffffffffffffffffff1916908160001a9053505b5050505050505b829650505050505050919050565b61125f614722565b600060208301905060408051908101604052808451815260200182815250915050919050565b60606000825114156112a957602060405190810160405280600081525090506113e3565b60006001835103846000015102905060008090505b83518110156112f45783818151811015156112d557fe5b90602001906020020151600001518201915080806001019150506112be565b506060816040519080825280601f01601f19166020018201604052801561132a5781602001600182028038833980820191505090505b509050600060208201905060008090505b85518110156113db5761138582878381518110151561135657fe5b9060200190602002015160200151888481518110151561137257fe5b90602001906020020151600001516123cd565b858181518110151561139357fe5b90602001906020020151600001518201915060018651038110156113ce576113c482886020015189600001516123cd565b8660000151820191505b808060010191505061133b565b508193505050505b92915050565b606060006060600061140560148661241890919063ffffffff16565b925092509250600083141515611483576040517f08c379a00000000000000000000000000000000000000000000000000000000081526004018080602001828103825260118152602001807f4a534f4e207061727365206661696c656400000000000000000000000000000081525060200191505060405180910390fd5b6001600481111561149057fe5b82600081518110151561149f57fe5b906020019060200201516000015160048111156114b857fe5b14151561152d576040517f08c379a000000000000000000000000000000000000000000000000000000000815260040180806020018281038252601c8152602001807f4578706563746564204a575420746f20626520616e206f626a6563740000000081525060200191505060405180910390fd5b6000600190505b8181101561177c576003600481111561154957fe5b838281518110151561155757fe5b9060200190602002015160000151600481111561157057fe5b1415156115c8576040517f08c379a00000000000000000000000000000000000000000000000000000000081526004018080602001828103825260288152602001806149d56028913960400191505060405180910390fd5b606061161584838151811015156115db57fe5b906020019060200201516020015185848151811015156115f757fe5b9060200190602002015160600151896132259092919063ffffffff16565b905060006116616040805190810160405280600381526020017f6b6964000000000000000000000000000000000000000000000000000000000081525083611ec890919063ffffffff16565b1415611770576003600481111561167457fe5b846001840181518110151561168557fe5b9060200190602002015160000151600481111561169e57fe5b141515611713576040517f08c379a000000000000000000000000000000000000000000000000000000000815260040180806020018281038252601b8152602001807f4578706563746564206b696420746f206265206120737472696e67000000000081525060200191505060405180910390fd5b611764846001840181518110151561172757fe5b9060200190602002015160200151856001850181518110151561174657fe5b9060200190602002015160600151896132259092919063ffffffff16565b95505050505050611781565b60028201915050611534565b505050505b919050565b606060a06040519081016040528060808152602001614815608091399050919050565b60606101206040519081016040528061010081526020016148d561010091399050919050565b600061187c6002866040518082805190602001908083835b60208310151561180c57805182526020820191506020810190506020830392506117e7565b6001836020036101000a038019825116818451168082178552505050505050905001915050602060405180830381855afa15801561184e573d6000803e3d6000fd5b5050506040513d602081101561186357600080fd5b8101908080519060200190929190505050858585613326565b9050949350505050565b60608060606000606060006118a560288861241890919063ffffffff16565b925092509250600083141515611923576040517f08c379a00000000000000000000000000000000000000000000000000000000081526004018080602001828103825260118152602001807f4a534f4e207061727365206661696c656400000000000000000000000000000081525060200191505060405180910390fd5b6001600481111561193057fe5b82600081518110151561193f57fe5b9060200190602002015160000151600481111561195857fe5b1415156119cd576040517f08c379a000000000000000000000000000000000000000000000000000000000815260040180806020018281038252601c8152602001807f4578706563746564204a575420746f20626520616e206f626a6563740000000081525060200191505060405180910390fd5b6000600190505b81811015611ebd57600360048111156119e957fe5b83828151811015156119f757fe5b90602001906020020151600001516004811115611a1057fe5b141515611a68576040517f08c379a00000000000000000000000000000000000000000000000000000000081526004018080602001828103825260288152602001806149d56028913960400191505060405180910390fd5b6060611ab58483815181101515611a7b57fe5b90602001906020020151602001518584815181101515611a9757fe5b90602001906020020151606001518b6132259092919063ffffffff16565b90506000611b016040805190810160405280600381526020017f737562000000000000000000000000000000000000000000000000000000000081525083611ec890919063ffffffff16565b1415611c0b5760036004811115611b1457fe5b8460018401815181101515611b2557fe5b90602001906020020151600001516004811115611b3e57fe5b141515611bb3576040517f08c379a000000000000000000000000000000000000000000000000000000000815260040180806020018281038252601b8152602001807f45787065637465642073756220746f206265206120737472696e67000000000081525060200191505060405180910390fd5b611c048460018401815181101515611bc757fe5b90602001906020020151602001518560018501815181101515611be657fe5b90602001906020020151606001518b6132259092919063ffffffff16565b9550611eb1565b6000611c556040805190810160405280600381526020017f617564000000000000000000000000000000000000000000000000000000000081525083611ec890919063ffffffff16565b1415611d5f5760036004811115611c6857fe5b8460018401815181101515611c7957fe5b90602001906020020151600001516004811115611c9257fe5b141515611d07576040517f08c379a000000000000000000000000000000000000000000000000000000000815260040180806020018281038252601b8152602001807f45787065637465642061756420746f206265206120737472696e67000000000081525060200191505060405180910390fd5b611d588460018401815181101515611d1b57fe5b90602001906020020151602001518560018501815181101515611d3a57fe5b90602001906020020151606001518b6132259092919063ffffffff16565b9750611eb0565b6000611da96040805190810160405280600581526020017f6e6f6e636500000000000000000000000000000000000000000000000000000081525083611ec890919063ffffffff16565b1415611eaf5760036004811115611dbc57fe5b8460018401815181101515611dcd57fe5b90602001906020020151600001516004811115611de657fe5b141515611e5b576040517f08c379a000000000000000000000000000000000000000000000000000000000815260040180806020018281038252601d8152602001807f4578706563746564206e6f6e636520746f206265206120737472696e6700000081525060200191505060405180910390fd5b611eac8460018401815181101515611e6f57fe5b90602001906020020151602001518560018501815181101515611e8e57fe5b90602001906020020151606001518b6132259092919063ffffffff16565b96505b5b5b600282019150506119d4565b505050509193909250565b6000606083905060608390506000825190508082511015611ee857815190505b60008090505b81811015612134578281815181101515611f0457fe5b9060200101517f010000000000000000000000000000000000000000000000000000000000000090047f0100000000000000000000000000000000000000000000000000000000000000027effffffffffffffffffffffffffffffffffffffffffffffffffffffffffffff19168482815181101515611f7f57fe5b9060200101517f010000000000000000000000000000000000000000000000000000000000000090047f0100000000000000000000000000000000000000000000000000000000000000027effffffffffffffffffffffffffffffffffffffffffffffffffffffffffffff1916101561201e577fffffffffffffffffffffffffffffffffffffffffffffffffffffffffffffffff945050505050612188565b828181518110151561202c57fe5b9060200101517f010000000000000000000000000000000000000000000000000000000000000090047f0100000000000000000000000000000000000000000000000000000000000000027effffffffffffffffffffffffffffffffffffffffffffffffffffffffffffff191684828151811015156120a757fe5b9060200101517f010000000000000000000000000000000000000000000000000000000000000090047f0100000000000000000000000000000000000000000000000000000000000000027effffffffffffffffffffffffffffffffffffffffffffffffffffffffffffff19161115612127576001945050505050612188565b8080600101915050611eee565b5081518351101561216a577fffffffffffffffffffffffffffffffffffffffffffffffffffffffffffffffff9350505050612188565b8151835111156121805760019350505050612188565b600093505050505b92915050565b6000806000806000856008889060020a0260108a9060020a02171790506000603f601283908060020a82049150501690506000603f600c84908060020a82049150501690506000603f600685908060020a82049150501690506000603f8516905060606040519081016040528060408152602001614895604091398481518110151561221657fe5b9060200101517f010000000000000000000000000000000000000000000000000000000000000090047f010000000000000000000000000000000000000000000000000000000000000002985060606040519081016040528060408152602001614895604091398381518110151561228a57fe5b9060200101517f010000000000000000000000000000000000000000000000000000000000000090047f01000000000000000000000000000000000000000000000000000000000000000297506060604051908101604052806040815260200161489560409139828151811015156122fe57fe5b9060200101517f010000000000000000000000000000000000000000000000000000000000000090047f010000000000000000000000000000000000000000000000000000000000000002965060606040519081016040528060408152602001614895604091398181518110151561237257fe5b9060200101517f010000000000000000000000000000000000000000000000000000000000000090047f0100000000000000000000000000000000000000000000000000000000000000029550505050505093509350935093565b5b6020811015156123f357815183526020830192506020820191506020810390506123ce565b60006001826020036101000a0390508019835116818551168181178652505050505050565b6000606060006060859050600061242d61473c565b61243687613944565b809650819250505060008082602001519050600061245261475e565b5b86518560000151101561320857600087866000015181518110151561247457fe5b9060200101517f010000000000000000000000000000000000000000000000000000000000000090047f0100000000000000000000000000000000000000000000000000000000000000029050607b7f010000000000000000000000000000000000000000000000000000000000000002817effffffffffffffffffffffffffffffffffffffffffffffffffffffffffffff191614806125585750605b7f010000000000000000000000000000000000000000000000000000000000000002817effffffffffffffffffffffffffffffffffffffffffffffffffffffffffffff1916145b156126a557838060010194505061256f868b6139e2565b80935081985050508615156125995760038a60008090509a509a509a50505050505050505061321e565b7fffffffffffffffffffffffffffffffffffffffffffffffffffffffffffffffff86604001511415156125f8578986604001518151811015156125d857fe5b9060200190602002015160a001805180919060010160ff1660ff16815250505b607b7f010000000000000000000000000000000000000000000000000000000000000002817effffffffffffffffffffffffffffffffffffffffffffffffffffffffffffff19161461264b57600261264e565b60015b8260000190600481111561265e57fe5b9081600481111561266b57fe5b81525050856000015182602001818152505060018260400190151590811515815250506001866020015103866040018181525050506131f3565b607d7f010000000000000000000000000000000000000000000000000000000000000002817effffffffffffffffffffffffffffffffffffffffffffffffffffffffffffff1916148061273c5750605d7f010000000000000000000000000000000000000000000000000000000000000002817effffffffffffffffffffffffffffffffffffffffffffffffffffffffffffff1916145b15612996576000607d7f010000000000000000000000000000000000000000000000000000000000000002827effffffffffffffffffffffffffffffffffffffffffffffffffffffffffffff191614612796576002612799565b60015b90506000809050600188602001510394505b6000851015156128b8578b858151811015156127c357fe5b906020019060200201519350836040015180156127e257508360800151155b156128aa578160048111156127f357fe5b8460000151600481111561280357fe5b1415156128275760018c60008090509c509c509c505050505050505050505061321e565b7fffffffffffffffffffffffffffffffffffffffffffffffffffffffffffffffff88604001818152505060018860000151018c8681518110151561286757fe5b90602001906020020151606001818152505060018c8681518110151561288957fe5b906020019060200201516080019015159081151581525050600190506128b8565b8480600190039550506127ab565b8015156128dc5760018c60008090509c509c509c505050505050505050505061321e565b5b6000851115612935578b858151811015156128f457fe5b9060200190602002015193508360400151801561291357508360800151155b156129275784886040018181525050612935565b8480600190039550506128dd565b600085141561298e578b8581518110151561294c57fe5b9060200190602002015193508360400151801561296b57508360800151155b1561298d57846fffffffffffffffffffffffffffffffff168860400181815250505b5b5050506131f3565b7f2200000000000000000000000000000000000000000000000000000000000000817effffffffffffffffffffffffffffffffffffffffffffffffffffffffffffff19161415612a7e576129eb868b8a613ab4565b9450600085141515612a1157848a60008090509a509a509a50505050505050505061321e565b83806001019450507fffffffffffffffffffffffffffffffffffffffffffffffffffffffffffffffff8660400151141515612a7857898660400151815181101515612a5857fe5b9060200190602002015160a001805180919060010160ff1660ff16815250505b506131f3565b7f2000000000000000000000000000000000000000000000000000000000000000817effffffffffffffffffffffffffffffffffffffffffffffffffffffffffffff19161480612b12575060117f010000000000000000000000000000000000000000000000000000000000000002817effffffffffffffffffffffffffffffffffffffffffffffffffffffffffffff1916145b80612b61575060127f010000000000000000000000000000000000000000000000000000000000000002817effffffffffffffffffffffffffffffffffffffffffffffffffffffffffffff1916145b80612bb0575060147f010000000000000000000000000000000000000000000000000000000000000002817effffffffffffffffffffffffffffffffffffffffffffffffffffffffffffff1916145b15612bbb57506131f3565b7f3a00000000000000000000000000000000000000000000000000000000000000817effffffffffffffffffffffffffffffffffffffffffffffffffffffffffffff19161415612c1c576001866020015103866040018181525050506131f3565b7f2c00000000000000000000000000000000000000000000000000000000000000817effffffffffffffffffffffffffffffffffffffffffffffffffffffffffffff19161415612e0d577fffffffffffffffffffffffffffffffffffffffffffffffffffffffffffffffff866040015114158015612cd0575060026004811115612ca257fe5b8a8760400151815181101515612cb457fe5b90602001906020020151600001516004811115612ccd57fe5b14155b8015612d12575060016004811115612ce457fe5b8a8760400151815181101515612cf657fe5b90602001906020020151600001516004811115612d0f57fe5b14155b15612e0757600186602001510392505b600083101515612e065760026004811115612d3957fe5b8a84815181101515612d4757fe5b90602001906020020151600001516004811115612d6057fe5b1480612d9d575060016004811115612d7457fe5b8a84815181101515612d8257fe5b90602001906020020151600001516004811115612d9b57fe5b145b15612df8578983815181101515612db057fe5b90602001906020020151604001518015612de357508983815181101515612dd357fe5b9060200190602002015160800151155b15612df75782866040018181525050612e06565b5b828060019003935050612d22565b5b506131f3565b7f3000000000000000000000000000000000000000000000000000000000000000817effffffffffffffffffffffffffffffffffffffffffffffffffffffffffffff191610158015612ea157507f3900000000000000000000000000000000000000000000000000000000000000817effffffffffffffffffffffffffffffffffffffffffffffffffffffffffffff191611155b80612eed57507f2d00000000000000000000000000000000000000000000000000000000000000817effffffffffffffffffffffffffffffffffffffffffffffffffffffffffffff1916145b80612f3957507f6600000000000000000000000000000000000000000000000000000000000000817effffffffffffffffffffffffffffffffffffffffffffffffffffffffffffff1916145b80612f8557507f7400000000000000000000000000000000000000000000000000000000000000817effffffffffffffffffffffffffffffffffffffffffffffffffffffffffffff1916145b80612fd157507f6e00000000000000000000000000000000000000000000000000000000000000817effffffffffffffffffffffffffffffffffffffffffffffffffffffffffffff1916145b15613137577fffffffffffffffffffffffffffffffffffffffffffffffffffffffffffffffff86604001511415156130995789866040015181518110151561301557fe5b9060200190602002015191506001600481111561302e57fe5b8260000151600481111561303e57fe5b148061307857506003600481111561305257fe5b8260000151600481111561306257fe5b148015613077575060008260a0015160ff1614155b5b156130985760018a60008090509a509a509a50505050505050505061321e565b5b6130a4868b8a6141bf565b94506000851415156130ca57848a60008090509a509a509a50505050505050505061321e565b83806001019450507fffffffffffffffffffffffffffffffffffffffffffffffffffffffffffffffff86604001511415156131315789866040015181518110151561311157fe5b9060200190602002015160a001805180919060010160ff1660ff16815250505b506131f3565b60207f010000000000000000000000000000000000000000000000000000000000000002817effffffffffffffffffffffffffffffffffffffffffffffffffffffffffffff1916101580156131d15750607e7f010000000000000000000000000000000000000000000000000000000000000002817effffffffffffffffffffffffffffffffffffffffffffffffffffffffffffff191611155b156131f15760018a60008090509a509a509a50505050505050505061321e565b505b84600001805180919060010181525050612453565b6000898660200151995099509950505050505050505b9250925092565b60608084905060608484036040519080825280601f01601f1916602001820160405280156132625781602001600182028038833980820191505090505b50905060008590505b8481101561331957828181518110151561328157fe5b9060200101517f010000000000000000000000000000000000000000000000000000000000000090047f010000000000000000000000000000000000000000000000000000000000000002828783038151811015156132dc57fe5b9060200101907effffffffffffffffffffffffffffffffffffffffffffffffffffffffffffff1916908160001a905350808060010191505061326b565b5080925050509392505050565b60006133306147a7565b61026060405190810160405280603060ff168152602001603160ff168152602001603060ff168152602001600d60ff168152602001600660ff168152602001600960ff168152602001606060ff168152602001608660ff168152602001604860ff168152602001600160ff168152602001606560ff168152602001600360ff168152602001600460ff168152602001600260ff168152602001600160ff168152602001600560ff168152602001600060ff168152602001600460ff168152602001602060ff168152509050600b602060ff166013010183511015151561341557600080fd5b60006060613424878787614578565b90506000815190506000865190506060816040519080825280601f01601f1916602001820160405280156134675781602001600182028038833980820191505090505b5090508160208201846020870160056107d05a03fa50600060206013600385030303905060007f0100000000000000000000000000000000000000000000000000000000000000028260008151811015156134be57fe5b9060200101517f010000000000000000000000000000000000000000000000000000000000000090047f0100000000000000000000000000000000000000000000000000000000000000027effffffffffffffffffffffffffffffffffffffffffffffffffffffffffffff19161415806135b85750600182600181518110151561354457fe5b9060200101517f010000000000000000000000000000000000000000000000000000000000000090047f0100000000000000000000000000000000000000000000000000000000000000027f0100000000000000000000000000000000000000000000000000000000000000900460ff1614155b156135cd57600197505050505050505061393c565b600295505b806002018610156136a05760ff7f010000000000000000000000000000000000000000000000000000000000000002828781518110151561360f57fe5b9060200101517f010000000000000000000000000000000000000000000000000000000000000090047f0100000000000000000000000000000000000000000000000000000000000000027effffffffffffffffffffffffffffffffffffffffffffffffffffffffffffff191614151561369357600297505050505050505061393c565b85806001019650506135d2565b60007f01000000000000000000000000000000000000000000000000000000000000000282826002018151811015156136d557fe5b9060200101517f010000000000000000000000000000000000000000000000000000000000000090047f0100000000000000000000000000000000000000000000000000000000000000027effffffffffffffffffffffffffffffffffffffffffffffffffffffffffffff191614151561375957600397505050505050505061393c565b600095505b601386101561382557868660138110151561377557fe5b602002015160ff168287836003010181518110151561379057fe5b9060200101517f010000000000000000000000000000000000000000000000000000000000000090047f0100000000000000000000000000000000000000000000000000000000000000027f0100000000000000000000000000000000000000000000000000000000000000900460ff1614151561381857600497505050505050505061393c565b858060010196505061375e565b600095505b602060ff16861015613930578b8660208110151561384457fe5b1a7f0100000000000000000000000000000000000000000000000000000000000000027effffffffffffffffffffffffffffffffffffffffffffffffffffffffffffff19168287601384600301010181518110151561389f57fe5b9060200101517f010000000000000000000000000000000000000000000000000000000000000090047f0100000000000000000000000000000000000000000000000000000000000000027effffffffffffffffffffffffffffffffffffffffffffffffffffffffffffff191614151561392357600597505050505050505061393c565b858060010196505061382a565b60009750505050505050505b949350505050565b61394c61473c565b606061395661473c565b60606040519081016040528060008152602001600081526020017fffffffffffffffffffffffffffffffffffffffffffffffffffffffffffffffff81525090506060846040519080825280602002602001820160405280156139d257816020015b6139bf6147cb565b8152602001906001900390816139b75790505b5090508181935093505050915091565b60006139ec61475e565b82518460200151101515613a24576000836001855103815181101515613a0e57fe5b9060200190602002015180905091509150613aad565b613a2c61475e565b60c06040519081016040528060006004811115613a4557fe5b81526020016000815260200160001515815260200160008152602001600015158152602001600060ff16815250905080848660200151815181101515613a8757fe5b906020019060200201819052508460200180518091906001018152505060018192509250505b9250929050565b600080846000015190506000613ac861475e565b866000018051809190600101815250505b8451876000015110156141a6576000858860000151815181101515613afa57fe5b9060200101517f010000000000000000000000000000000000000000000000000000000000000090047f01000000000000000000000000000000000000000000000000000000000000000290507f2200000000000000000000000000000000000000000000000000000000000000817effffffffffffffffffffffffffffffffffffffffffffffffffffffffffffff19161415613be257613b9b88886139e2565b8093508194505050821515613bc1578388600001818152505060039450505050506141b8565b613bd5826003600187018b6000015161464c565b60009450505050506141b8565b605c817f0100000000000000000000000000000000000000000000000000000000000000900460ff16148015613c1f575085516001896000015101105b1561418f57876000018051809190600101815250507f2200000000000000000000000000000000000000000000000000000000000000868960000151815181101515613c6757fe5b9060200101517f010000000000000000000000000000000000000000000000000000000000000090047f0100000000000000000000000000000000000000000000000000000000000000027effffffffffffffffffffffffffffffffffffffffffffffffffffffffffffff19161480613d7d57507f2f00000000000000000000000000000000000000000000000000000000000000868960000151815181101515613d0e57fe5b9060200101517f010000000000000000000000000000000000000000000000000000000000000090047f0100000000000000000000000000000000000000000000000000000000000000027effffffffffffffffffffffffffffffffffffffffffffffffffffffffffffff1916145b80613e2557507f5c00000000000000000000000000000000000000000000000000000000000000868960000151815181101515613db657fe5b9060200101517f010000000000000000000000000000000000000000000000000000000000000090047f0100000000000000000000000000000000000000000000000000000000000000027effffffffffffffffffffffffffffffffffffffffffffffffffffffffffffff1916145b80613ecd57507f6600000000000000000000000000000000000000000000000000000000000000868960000151815181101515613e5e57fe5b9060200101517f010000000000000000000000000000000000000000000000000000000000000090047f0100000000000000000000000000000000000000000000000000000000000000027effffffffffffffffffffffffffffffffffffffffffffffffffffffffffffff1916145b80613f7557507f7200000000000000000000000000000000000000000000000000000000000000868960000151815181101515613f0657fe5b9060200101517f010000000000000000000000000000000000000000000000000000000000000090047f0100000000000000000000000000000000000000000000000000000000000000027effffffffffffffffffffffffffffffffffffffffffffffffffffffffffffff1916145b8061401d57507f6e00000000000000000000000000000000000000000000000000000000000000868960000151815181101515613fae57fe5b9060200101517f010000000000000000000000000000000000000000000000000000000000000090047f0100000000000000000000000000000000000000000000000000000000000000027effffffffffffffffffffffffffffffffffffffffffffffffffffffffffffff1916145b806140c557507f620000000000000000000000000000000000000000000000000000000000000086896000015181518110151561405657fe5b9060200101517f010000000000000000000000000000000000000000000000000000000000000090047f0100000000000000000000000000000000000000000000000000000000000000027effffffffffffffffffffffffffffffffffffffffffffffffffffffffffffff1916145b8061416d57507f74000000000000000000000000000000000000000000000000000000000000008689600001518151811015156140fe57fe5b9060200101517f010000000000000000000000000000000000000000000000000000000000000090047f0100000000000000000000000000000000000000000000000000000000000000027effffffffffffffffffffffffffffffffffffffffffffffffffffffffffffff1916145b156141785750614191565b8388600001818152505060019450505050506141b8565b505b86600001805180919060010181525050613ad9565b82876000018181525050600293505050505b9392505050565b600080600090506000856000015190506000806141da61475e565b5b8651896000015110156144f5578689600001518151811015156141fa57fe5b9060200101517f010000000000000000000000000000000000000000000000000000000000000090047f01000000000000000000000000000000000000000000000000000000000000000292507f2000000000000000000000000000000000000000000000000000000000000000837effffffffffffffffffffffffffffffffffffffffffffffffffffffffffffff191614806142d857507f0900000000000000000000000000000000000000000000000000000000000000837effffffffffffffffffffffffffffffffffffffffffffffffffffffffffffff1916145b8061432457507f0a00000000000000000000000000000000000000000000000000000000000000837effffffffffffffffffffffffffffffffffffffffffffffffffffffffffffff1916145b8061437057507f0d00000000000000000000000000000000000000000000000000000000000000837effffffffffffffffffffffffffffffffffffffffffffffffffffffffffffff1916145b806143bc57507f2c00000000000000000000000000000000000000000000000000000000000000837effffffffffffffffffffffffffffffffffffffffffffffffffffffffffffff1916145b8061440b5750607d7f010000000000000000000000000000000000000000000000000000000000000002837effffffffffffffffffffffffffffffffffffffffffffffffffffffffffffff1916145b8061445a5750605d7f010000000000000000000000000000000000000000000000000000000000000002837effffffffffffffffffffffffffffffffffffffffffffffffffffffffffffff1916145b1561446857600194506144f5565b6020837f0100000000000000000000000000000000000000000000000000000000000000900460ff1610806144c35750607f837f0100000000000000000000000000000000000000000000000000000000000000900460ff16115b156144e05783896000018181525050600195505050505050614571565b886000018051809190600101815250506141db565b8415156145145783896000018181525050600295505050505050614571565b61451e89896139e2565b80925081935050508115156145455783896000018181525050600395505050505050614571565b614556816004868c6000015161464c565b88600001805180919060019003815250506000955050505050505b9392505050565b60606000825184518651606001010190506000855190506000855190506000855190506000806000806060886040519080825280601f01601f1916602001820160405280156145d65781602001600182028038833980820191505090505b50905060208d01945060208c01935060208b01925087602082015286604082015285606082015260208101915061461260608301868f516146bd565b6146248d516060840101858e516146bd565b6146398c518e51606085010101848d516146bd565b8099505050505050505050509392505050565b828460000190600481111561465d57fe5b9081600481111561466a57fe5b8152505081846020018181525050600184604001901515908115158152505080846060018181525050600184608001901515908115158152505060008460a0019060ff16908160ff168152505050505050565b5b6020811015156146e357815183526020830192506020820191506020810390506146be565b60006001826020036101000a0390508019835116818551168181178652505050505050565b604080519081016040528060008152602001600081525090565b604080519081016040528060008152602001600081525090565b6060604051908101604052806000815260200160008152602001600081525090565b60c0604051908101604052806000600481111561477757fe5b81526020016000815260200160001515815260200160008152602001600015158152602001600060ff1681525090565b61026060405190810160405280601390602082028038833980820191505090505090565b60c060405190810160405280600060048111156147e457fe5b81526020016000815260200160001515815260200160008152602001600015158152602001600060ff168152509056fe00000000000000000000000000000000000000000000000000000000000000000000000000000000000000000000000000000000000000000000000000000000000000000000000000000000000000000000000000000000000000000000000000000000000000000000000000000000000000000000000000000000000100014142434445464748494a4b4c4d4e4f505152535455565758595a6162636465666768696a6b6c6d6e6f707172737475767778797a303132333435363738392d5fb0ca0a0eeba26cda6c0fa56527056d49c91045cfd6598a050f7ca831173416426f3630264221c94b8189f19cbfa2073682ce16a459c5e59978320ffc9af811a8e9b1264c4dd3b32339791458efd65776229ff82ce26389bacfb606fdfd05ad0253045931b7bfd1383ca5d2e5f49796c828a59321f1632ced38fe66fd668d9c2851f47e50cf337a1fe37c189da93e2cfc5cfcb833c06f749ff405e33c94aea36d120b622e9c61beaddf677458eea985c6567c7a54b3f6d079fbfb6c563548c0349e5d08972d9e6be932e69001ab0390363a342a9a874c70b231eb0b0cd90d4599d914c7adf755ee5e5012099aa1dc5a7152b598b8f90c2b16842a26f650fe5e6f4578706563746564204a575420746f20636f6e7461696e206f6e6c7920737472696e67206b657973a165627a7a723058208dd44677fc7913c61eccfadc0314969f6b4f105be345eeb2b1e19e03fdaa11320029",
  "source": "pragma solidity ^0.5.0;\n\nimport \"./Identity.sol\";\nimport \"./IERC20.sol\";\n\ncontract TestIdentity is Identity {\n  bytes private constant rsaExponent = hex\"0000000000000000000000000000000000000000000000000000000000000000000000000000000000000000000000000000000000000000000000000000000000000000000000000000000000000000000000000000000000000000000000000000000000000000000000000000000000000000000000000000000000010001\";\n  bytes private constant rsaModulus = hex\"B0CA0A0EEBA26CDA6C0FA56527056D49C91045CFD6598A050F7CA831173416426F3630264221C94B8189F19CBFA2073682CE16A459C5E59978320FFC9AF811A8E9B1264C4DD3B32339791458EFD65776229FF82CE26389BACFB606FDFD05AD0253045931B7BFD1383CA5D2E5F49796C828A59321F1632CED38FE66FD668D9C2851F47E50CF337A1FE37C189DA93E2CFC5CFCB833C06F749FF405E33C94AEA36D120B622E9C61BEADDF677458EEA985C6567C7A54B3F6D079FBFB6C563548C0349E5D08972D9E6BE932E69001AB0390363A342A9A874C70B231EB0B0CD90D4599D914C7ADF755EE5E5012099AA1DC5A7152B598B8F90C2B16842A26F650FE5E6F\";\n\n  constructor(string memory sub, string memory aud)\n    Identity(sub, aud, JWKS(0), IERC20(0))\n    public payable { }\n\n  function getRsaExponent(string memory) internal pure returns (bytes memory) {\n    return rsaExponent;\n  }\n\n  function getRsaModulus(string memory) internal view returns (bytes memory) {\n    return rsaModulus;\n  }\n}",
  "sourcePath": "/home/billy/GitHub.com/okwme/sheetcoin/contracts/TestIdentity.sol",
  "compiler": {
    "name": "solc",
    "version": "0.5.4+commit.9549d8ff.Emscripten.clang"
  },
  "schemaVersion": "3.0.6",
  "updatedAt": "2019-11-09T14:30:34.538Z",
  "devdoc": {
    "methods": {}
  },
  "userdoc": {
    "methods": {}
  }
}